{
  "address": "0x631C2435FE638e38e10de3B6E9B1C073D0225D4f",
  "abi": [
    {
      "inputs": [
        {
          "internalType": "address",
          "name": "admin",
          "type": "address"
        }
      ],
      "stateMutability": "nonpayable",
      "type": "constructor"
    },
    {
      "anonymous": false,
      "inputs": [
        {
          "indexed": true,
          "internalType": "address",
          "name": "delegateAddress",
          "type": "address"
        },
        {
          "indexed": true,
          "internalType": "address",
          "name": "tokenAddress",
          "type": "address"
        },
        {
          "indexed": false,
          "internalType": "uint256",
          "name": "tokenChainId",
          "type": "uint256"
        },
        {
          "indexed": false,
          "internalType": "string",
          "name": "metadata",
          "type": "string"
        }
      ],
      "name": "DelegateAdded",
      "type": "event"
    },
    {
      "anonymous": false,
      "inputs": [
        {
          "indexed": true,
          "internalType": "address",
          "name": "delegateAddress",
          "type": "address"
        },
        {
          "indexed": true,
          "internalType": "address",
          "name": "tokenAddress",
          "type": "address"
        },
        {
          "indexed": false,
          "internalType": "uint256",
          "name": "tokenChainId",
          "type": "uint256"
        }
      ],
      "name": "DelegateRemoved",
      "type": "event"
    },
    {
      "anonymous": false,
      "inputs": [
        {
          "indexed": true,
          "internalType": "bytes32",
          "name": "role",
          "type": "bytes32"
        },
        {
          "indexed": true,
          "internalType": "bytes32",
          "name": "previousAdminRole",
          "type": "bytes32"
        },
        {
          "indexed": true,
          "internalType": "bytes32",
          "name": "newAdminRole",
          "type": "bytes32"
        }
      ],
      "name": "RoleAdminChanged",
      "type": "event"
    },
    {
      "anonymous": false,
      "inputs": [
        {
          "indexed": true,
          "internalType": "bytes32",
          "name": "role",
          "type": "bytes32"
        },
        {
          "indexed": true,
          "internalType": "address",
          "name": "account",
          "type": "address"
        },
        {
          "indexed": true,
          "internalType": "address",
          "name": "sender",
          "type": "address"
        }
      ],
      "name": "RoleGranted",
      "type": "event"
    },
    {
      "anonymous": false,
      "inputs": [
        {
          "indexed": true,
          "internalType": "bytes32",
          "name": "role",
          "type": "bytes32"
        },
        {
          "indexed": true,
          "internalType": "address",
          "name": "account",
          "type": "address"
        },
        {
          "indexed": true,
          "internalType": "address",
          "name": "sender",
          "type": "address"
        }
      ],
      "name": "RoleRevoked",
      "type": "event"
    },
    {
      "inputs": [],
      "name": "DEFAULT_ADMIN_ROLE",
      "outputs": [
        {
          "internalType": "bytes32",
          "name": "",
          "type": "bytes32"
        }
      ],
      "stateMutability": "view",
      "type": "function"
    },
    {
      "inputs": [],
      "name": "DEREGISTER_TYPEHASH",
      "outputs": [
        {
          "internalType": "bytes32",
          "name": "",
          "type": "bytes32"
        }
      ],
      "stateMutability": "view",
      "type": "function"
    },
    {
      "inputs": [],
      "name": "PROVIDER_ROLE",
      "outputs": [
        {
          "internalType": "bytes32",
          "name": "",
          "type": "bytes32"
        }
      ],
      "stateMutability": "view",
      "type": "function"
    },
    {
      "inputs": [],
      "name": "REGISTER_TYPEHASH",
      "outputs": [
        {
          "internalType": "bytes32",
          "name": "",
          "type": "bytes32"
        }
      ],
      "stateMutability": "view",
      "type": "function"
    },
    {
      "inputs": [
        {
          "internalType": "address",
          "name": "",
          "type": "address"
        },
        {
          "internalType": "address",
          "name": "",
          "type": "address"
        },
        {
          "internalType": "uint256",
          "name": "",
          "type": "uint256"
        }
      ],
      "name": "delegates",
      "outputs": [
        {
          "internalType": "uint8",
          "name": "",
          "type": "uint8"
        }
      ],
      "stateMutability": "view",
      "type": "function"
    },
    {
      "inputs": [
        {
          "internalType": "address",
          "name": "tokenAddress",
          "type": "address"
        },
        {
          "internalType": "uint256",
          "name": "tokenChainId",
          "type": "uint256"
        }
      ],
      "name": "deregisterDelegate",
      "outputs": [],
      "stateMutability": "nonpayable",
      "type": "function"
    },
    {
      "inputs": [
        {
          "internalType": "address",
          "name": "tokenAddress",
          "type": "address"
        },
        {
          "internalType": "uint256",
          "name": "tokenChainId",
          "type": "uint256"
        },
        {
          "internalType": "uint256",
          "name": "nonce",
          "type": "uint256"
        },
        {
          "internalType": "uint256",
          "name": "expiry",
          "type": "uint256"
        },
        {
          "internalType": "uint8",
          "name": "v",
          "type": "uint8"
        },
        {
          "internalType": "bytes32",
          "name": "r",
          "type": "bytes32"
        },
        {
          "internalType": "bytes32",
          "name": "s",
          "type": "bytes32"
        }
      ],
      "name": "deregisterDelegateBySig",
      "outputs": [],
      "stateMutability": "nonpayable",
      "type": "function"
    },
    {
      "inputs": [],
      "name": "expiryDateForRegistryBackfill",
      "outputs": [
        {
          "internalType": "uint256",
          "name": "",
          "type": "uint256"
        }
      ],
      "stateMutability": "view",
      "type": "function"
    },
    {
      "inputs": [
        {
          "internalType": "bytes32",
          "name": "role",
          "type": "bytes32"
        }
      ],
      "name": "getRoleAdmin",
      "outputs": [
        {
          "internalType": "bytes32",
          "name": "",
          "type": "bytes32"
        }
      ],
      "stateMutability": "view",
      "type": "function"
    },
    {
      "inputs": [
        {
          "internalType": "bytes32",
          "name": "role",
          "type": "bytes32"
        },
        {
          "internalType": "address",
          "name": "account",
          "type": "address"
        }
      ],
      "name": "grantRole",
      "outputs": [],
      "stateMutability": "nonpayable",
      "type": "function"
    },
    {
      "inputs": [
        {
          "internalType": "bytes32",
          "name": "role",
          "type": "bytes32"
        },
        {
          "internalType": "address",
          "name": "account",
          "type": "address"
        }
      ],
      "name": "hasRole",
      "outputs": [
        {
          "internalType": "bool",
          "name": "",
          "type": "bool"
        }
      ],
      "stateMutability": "view",
      "type": "function"
    },
    {
      "inputs": [
        {
          "internalType": "address",
          "name": "delegateAddress",
          "type": "address"
        },
        {
          "internalType": "address",
          "name": "tokenAddress",
          "type": "address"
        },
        {
          "internalType": "uint256",
          "name": "tokenChainId",
          "type": "uint256"
        }
      ],
      "name": "isDelegateRegistered",
      "outputs": [
        {
          "internalType": "uint8",
          "name": "isRegistered",
          "type": "uint8"
        }
      ],
      "stateMutability": "view",
      "type": "function"
    },
    {
      "inputs": [
        {
          "internalType": "address",
          "name": "",
          "type": "address"
        }
      ],
      "name": "nonces",
      "outputs": [
        {
          "internalType": "uint256",
          "name": "",
          "type": "uint256"
        }
      ],
      "stateMutability": "view",
      "type": "function"
    },
    {
      "inputs": [
        {
          "internalType": "address",
          "name": "tokenAddress",
          "type": "address"
        },
        {
          "internalType": "uint256",
          "name": "tokenChainId",
          "type": "uint256"
        },
        {
          "internalType": "string",
          "name": "metadata",
          "type": "string"
        }
      ],
      "name": "registerDelegate",
      "outputs": [],
      "stateMutability": "nonpayable",
      "type": "function"
    },
    {
      "inputs": [
        {
          "internalType": "address",
          "name": "delegateAddress",
          "type": "address"
        },
        {
          "internalType": "address",
          "name": "tokenAddress",
          "type": "address"
        },
        {
          "internalType": "uint256",
          "name": "tokenChainId",
          "type": "uint256"
        },
        {
          "internalType": "string",
          "name": "metadata",
          "type": "string"
        },
        {
          "internalType": "uint256",
          "name": "nonce",
          "type": "uint256"
        },
        {
          "internalType": "uint256",
          "name": "expiry",
          "type": "uint256"
        },
        {
          "internalType": "uint8",
          "name": "v",
          "type": "uint8"
        },
        {
          "internalType": "bytes32",
          "name": "r",
          "type": "bytes32"
        },
        {
          "internalType": "bytes32",
          "name": "s",
          "type": "bytes32"
        }
      ],
      "name": "registerDelegateBySig",
      "outputs": [],
      "stateMutability": "nonpayable",
      "type": "function"
    },
    {
      "inputs": [
        {
          "internalType": "bytes32",
          "name": "role",
          "type": "bytes32"
        },
        {
          "internalType": "address",
          "name": "account",
          "type": "address"
        }
      ],
      "name": "renounceRole",
      "outputs": [],
      "stateMutability": "nonpayable",
      "type": "function"
    },
    {
      "inputs": [
        {
          "internalType": "bytes32",
          "name": "role",
          "type": "bytes32"
        },
        {
          "internalType": "address",
          "name": "account",
          "type": "address"
        }
      ],
      "name": "revokeRole",
      "outputs": [],
      "stateMutability": "nonpayable",
      "type": "function"
    },
    {
      "inputs": [
        {
          "internalType": "uint256",
          "name": "expiry",
          "type": "uint256"
        }
      ],
      "name": "setExpiryDateForRegistryBackfill",
      "outputs": [],
      "stateMutability": "nonpayable",
      "type": "function"
    },
    {
      "inputs": [
        {
          "internalType": "bytes4",
          "name": "interfaceId",
          "type": "bytes4"
        }
      ],
      "name": "supportsInterface",
      "outputs": [
        {
          "internalType": "bool",
          "name": "",
          "type": "bool"
        }
      ],
      "stateMutability": "view",
      "type": "function"
    },
    {
      "inputs": [
        {
          "internalType": "address",
          "name": "delegateAddress",
          "type": "address"
        },
        {
          "internalType": "address",
          "name": "tokenAddress",
          "type": "address"
        },
        {
          "internalType": "uint256",
          "name": "tokenChainId",
          "type": "uint256"
        },
        {
          "internalType": "string",
          "name": "metadata",
          "type": "string"
        }
      ],
      "name": "uploadDelegate",
      "outputs": [],
      "stateMutability": "nonpayable",
      "type": "function"
    }
  ],
  "transactionHash": "0x571ffda59d1608ba91c497af4b3d1f0e5126da7891aa1e48b3a85ba42b5ba21e",
  "args": [
    "0x17499276cC8117353900fd8458f5DB52fC27E2cA"
  ],
  "numDeployments": 2,
  "solcInputHash": "5754dfa30fbcf4871614ae7486e262ac",
  "bytecode": "0x61014034620001eb57601f620018fb38819003918201601f19168301926001600160401b039290919083851183861017620001d55780839260409687528339602092839181010312620001eb57516001600160a01b0381169190829003620001eb578351916200006f83620001f0565b6011835260038284017064656c65676174652d726567697374727960781b81528387516200009d81620001f0565b8381520194620312e360ec1b86525190209320948360e052610100958087524660a0528151848101917f8b73c3c69bb8fe3d512ecc4cf759cc79239f7b179b0ffacaa9a75d522b39400f968784528483015260608201524660808201523060a082015260a0815260c081019681881090881117620001d5578683525190206080523060c052610120938452600092838052838152818420838552815260ff8285205416156200018a575b505050506116ee92836200020d8439608051836114f6015260a051836115b1015260c051836114c7015260e051836115450152518261156b015251816115220152f35b83805283815281842083855290528220805460ff1916600117905533917f2f8788117e7eff1d82e926ec794901d17c78024a50270940304540a733656f0d8180a43880808062000147565b634e487b7160e01b600052604160045260246000fd5b600080fd5b604081019081106001600160401b03821117620001d55760405256fe608060408181526004908136101561001657600080fd5b600092833560e01c90816301ffc9a714610cfc575080631a7f61a514610b475780631bdec85214610b1e578063228ce01414610626578063248a9ca314610af457806324c20a3414610ab95780632f2ff15d14610a1157806336568abe14610971578063545c022a146109525780635d47d779146109175780636a5306a3146108dc578063733ed1c914610894578063779de8b5146106a05780637ecebe0014610669578063867a1c341461062657806391d14854146105e15780639840046614610372578063a217fddf14610353578063b7967cf31461013f5763d547741f1461010057600080fd5b3461013b578060031936011261013b5761013891356101336001610122610db6565b938387528660205286200154610ec8565b6110c9565b80f35b8280fd5b503461013b576020908160031936011261034f57838052838252808420338552825260ff8185205416156101765750503560035580f35b909261018133611165565b908083519061018f82610e33565b6042825286820192606036853782511561033c57603084538251906001918210156103295790607860218501536041915b8183116102be5750505061027d57604861025093859361025f9361027997519687937f416363657373436f6e74726f6c3a206163636f756e74200000000000000000008c86015261021b8c8251928391603789019101611081565b8401917f206973206d697373696e6720726f6c6520000000000000000000000000000000603784015251809386840190611081565b01036028810185520183610e4f565b5193849362461bcd60e51b855284015260248301906110a4565b0390fd5b606485878087519262461bcd60e51b845283015260248201527f537472696e67733a20686578206c656e67746820696e73756666696369656e746044820152fd5b909192600f81166010811015610316576f181899199a1a9b1b9c1cb0b131b232b360811b901a6102ee858761113e565b53881c928015610303576000190191906101c0565b60248260118b634e487b7160e01b835252fd5b60248360328c634e487b7160e01b835252fd5b80603289634e487b7160e01b6024945252fd5b80603288634e487b7160e01b6024945252fd5b8380fd5b83823461036e578160031936011261036e5751908152602090f35b5080fd5b5091903461036e5761012036600319011261036e5761038f610d9b565b90610398610db6565b6044359167ffffffffffffffff6064358181116105dd576103bc9036908401610e71565b946084359160a43560c43560ff811681036105d95781421161057057908a939291895160208b01209285519260208401947f62f336915c19779a574ca5ec6e327da56f347d8e548daf06f207c3d4d381c81486526001600160a01b0397888c16908601528b606086015260808501528760a085015260c084015260c0835260e08301908382109082111761055d579161047b979695949391610473938e5261046e610104359360e4359351902061145a565b6113cb565b959095611299565b81851691829116036104f457875260026020528787209081549161049e83611274565b9055036104b157506101389495506115d7565b606490602088519162461bcd60e51b8352820152601f60248201527f526567697374657244656c65676174653a20696e76616c6964206e6f6e6365006044820152fd5b60848360208b519162461bcd60e51b8352820152602960248201527f5369676e657220616e642064656c65676174652061646472657373657320646f60448201527f6e2774206d6174636800000000000000000000000000000000000000000000006064820152fd5b60248c60418a634e487b7160e01b835252fd5b60848660208d519162461bcd60e51b8352820152602360248201527f526567697374657244656c65676174653a207369676e6174757265206578706960448201527f72656400000000000000000000000000000000000000000000000000000000006064820152fd5b8980fd5b8680fd5b50903461013b578160031936011261013b578160209360ff92610602610db6565b903582528186526001600160a01b0383832091168252855220541690519015158152f35b83823461036e5760ff8160209361063c36610dcc565b916001600160a01b0380911684526001885284842091168352865282822090825285522054169051908152f35b83823461036e57602036600319011261036e57806020926001600160a01b03610690610d9b565b1681526002845220549051908152f35b5091903461036e57608036600319011261036e576106bc610d9b565b6106c4610db6565b60643567ffffffffffffffff8111610890576106e39036908501610e71565b927f18d9ff454de989bd126b06bd404b47ede75f9e65543e94e8d212f89d7dcbb87c808652602090868252878720338852825260ff8888205416156107a55750600354421161073d575050610138939450604435916115d7565b6084925086519162461bcd60e51b8352820152603660248201527f526567697374657244656c65676174653a207265676973747279206261636b6660448201527f696c6c20706572696f64206861732065787069726564000000000000000000006064820152fd5b878391886107b233611165565b918351906107bf82610e33565b6042825286820192606036853782511561033c57603084538251906001918210156103295790607860218501536041915b81831161084b5750505061027d57604861025093859361025f9361027997519687937f416363657373436f6e74726f6c3a206163636f756e74200000000000000000008c86015261021b8c8251928391603789019101611081565b909192600f81166010811015610316576f181899199a1a9b1b9c1cb0b131b232b360811b901a61087b858761113e565b53881c928015610303576000190191906107f0565b8480fd5b50503461036e57606036600319011261036e576108af610d9b565b60443567ffffffffffffffff811161034f57610138926108d191369101610e71565b9060243590336115d7565b83823461036e578160031936011261036e57602090517f62f336915c19779a574ca5ec6e327da56f347d8e548daf06f207c3d4d381c8148152f35b83823461036e578160031936011261036e57602090517fb49ef440e034b80c5563a6367f2ed85be6cd5ed142b9818159faf97273dc6aa68152f35b83823461036e578160031936011261036e576020906003549051908152f35b5091903461036e578260031936011261036e5761098c610db6565b90336001600160a01b038316036109a8579061013891356110c9565b608490602085519162461bcd60e51b8352820152602f60248201527f416363657373436f6e74726f6c3a2063616e206f6e6c792072656e6f756e636560448201527f20726f6c657320666f722073656c6600000000000000000000000000000000006064820152fd5b50903461013b578160031936011261013b573590610a2d610db6565b9082845283602052610a4460018286200154610ec8565b828452836020526001600160a01b0381852092169182855260205260ff818520541615610a6f578380f35b828452836020528084208285526020528320600160ff1982541617905533917f2f8788117e7eff1d82e926ec794901d17c78024a50270940304540a733656f0d8480a43880808380f35b83823461036e578160031936011261036e57602090517f18d9ff454de989bd126b06bd404b47ede75f9e65543e94e8d212f89d7dcbb87c8152f35b50903461013b57602036600319011261013b57816020936001923581528085522001549051908152f35b83823461036e57366003190112610b4457610138610b3a610d9b565b6024359033611655565b80fd5b5091903461036e5760e036600319011261036e57610b63610d9b565b6024359160443560643560843560ff811681036105dd57814211610c935790610bf6610bfe949392895160208101917fb49ef440e034b80c5563a6367f2ed85be6cd5ed142b9818159faf97273dc6aa683526001600160a01b0394858a168d8401528a606084015286608084015260a083015260a08252610be382610e01565b61046e60c4359360a4359351902061145a565b949094611299565b83168652600260205286862090815491610c1783611274565b905503610c2a5750610138939450611655565b608490602087519162461bcd60e51b8352820152602160248201527f4465726567697374657244656c65676174653a20696e76616c6964206e6f6e6360448201527f65000000000000000000000000000000000000000000000000000000000000006064820152fd5b60848460208a519162461bcd60e51b8352820152602560248201527f4465726567697374657244656c65676174653a207369676e617475726520657860448201527f70697265640000000000000000000000000000000000000000000000000000006064820152fd5b8490843461013b57602036600319011261013b57357fffffffff00000000000000000000000000000000000000000000000000000000811680910361013b57602092507f7965db0b000000000000000000000000000000000000000000000000000000008114908115610d71575b5015158152f35b7f01ffc9a70000000000000000000000000000000000000000000000000000000091501483610d6a565b600435906001600160a01b0382168203610db157565b600080fd5b602435906001600160a01b0382168203610db157565b6060906003190112610db1576001600160a01b03906004358281168103610db157916024359081168103610db1579060443590565b60c0810190811067ffffffffffffffff821117610e1d57604052565b634e487b7160e01b600052604160045260246000fd5b6080810190811067ffffffffffffffff821117610e1d57604052565b90601f8019910116810190811067ffffffffffffffff821117610e1d57604052565b81601f82011215610db15780359067ffffffffffffffff8211610e1d5760405192610ea6601f8401601f191660200185610e4f565b82845260208383010111610db157816000926020809301838601378301015290565b600090808252602090828252604092838120338252835260ff848220541615610ef15750505050565b610efa33611165565b91845190610f0782610e33565b6042825284820192606036853782511561106d576030845382519060019182101561106d5790607860218501536041915b818311610fff57505050610fbd576048610279938693610fa193610f9298519889937f416363657373436f6e74726f6c3a206163636f756e74200000000000000000008a86015261021b815180928c603789019101611081565b01036028810187520185610e4f565b5192839262461bcd60e51b8452600484015260248301906110a4565b60648486519062461bcd60e51b825280600483015260248201527f537472696e67733a20686578206c656e67746820696e73756666696369656e746044820152fd5b909192600f81166010811015611059576f181899199a1a9b1b9c1cb0b131b232b360811b901a61102f858761113e565b5360041c92801561104557600019019190610f38565b602482634e487b7160e01b81526011600452fd5b602483634e487b7160e01b81526032600452fd5b80634e487b7160e01b602492526032600452fd5b60005b8381106110945750506000910152565b8181015183820152602001611084565b906020916110bd81518092818552858086019101611081565b601f01601f1916010190565b90600091808352826020526001600160a01b036040842092169182845260205260ff6040842054166110fa57505050565b80835282602052604083208284526020526040832060ff1981541690557ff6391f5c32d9c69d2a47ea670b442974b53935d1edc7fd64eb21e047a839171b339380a4565b90815181101561114f570160200190565b634e487b7160e01b600052603260045260246000fd5b604051906060820182811067ffffffffffffffff821117610e1d57604052602a825260208201604036823782511561114f5760309053815160019081101561114f57607860218401536029905b8082116112065750506111c25790565b606460405162461bcd60e51b815260206004820152602060248201527f537472696e67733a20686578206c656e67746820696e73756666696369656e746044820152fd5b9091600f8116601081101561125f576f181899199a1a9b1b9c1cb0b131b232b360811b901a611235848661113e565b5360041c91801561124a5760001901906111b2565b60246000634e487b7160e01b81526011600452fd5b60246000634e487b7160e01b81526032600452fd5b60001981146112835760010190565b634e487b7160e01b600052601160045260246000fd5b60058110156113b557806112aa5750565b600181036112f657606460405162461bcd60e51b815260206004820152601860248201527f45434453413a20696e76616c6964207369676e617475726500000000000000006044820152fd5b6002810361134257606460405162461bcd60e51b815260206004820152601f60248201527f45434453413a20696e76616c6964207369676e6174757265206c656e677468006044820152fd5b60031461134b57565b608460405162461bcd60e51b815260206004820152602260248201527f45434453413a20696e76616c6964207369676e6174757265202773272076616c60448201527f75650000000000000000000000000000000000000000000000000000000000006064820152fd5b634e487b7160e01b600052602160045260246000fd5b9291907f7fffffffffffffffffffffffffffffff5d576e7357a4501ddfe92f46681b20a0831161144e5791608094939160ff602094604051948552168484015260408301526060820152600093849182805260015afa156114415781516001600160a01b0381161561143b579190565b50600190565b50604051903d90823e3d90fd5b50505050600090600390565b6114626114bd565b906040519060208201927f1901000000000000000000000000000000000000000000000000000000000000845260228301526042820152604281526080810181811067ffffffffffffffff821117610e1d5760405251902090565b6001600160a01b037f0000000000000000000000000000000000000000000000000000000000000000163014806115ae575b15611518577f000000000000000000000000000000000000000000000000000000000000000090565b60405160208101907f000000000000000000000000000000000000000000000000000000000000000082527f000000000000000000000000000000000000000000000000000000000000000060408201527f000000000000000000000000000000000000000000000000000000000000000060608201524660808201523060a082015260a081526115a881610e01565b51902090565b507f000000000000000000000000000000000000000000000000000000000000000046146114ef565b7ff8062ac22dc3b85838812d1c14968311ef4bda78cf9f74aba563533ad670c4179193926116506001600160a01b03809316946000938685526001602052604094859182822099169889825260205281812085825260205220600160ff19825416179055835193849384528060208501528301906110a4565b0390a3565b909160207fec7796ac22cd691744830d7a8a9a7d21752be77e84ebc1ee5dca0ae6e47d9da39160406001600160a01b038095169460009086825260018552828220971696878252845281812083825284522060ff198154169055604051908152a356fea264697066735822122016b0433591af798e0e7e7e53bca2eb1dbd819abf5201ae9502bcb95426d695d564736f6c63430008130033",
  "devdoc": {
    "events": {
      "RoleAdminChanged(bytes32,bytes32,bytes32)": {
        "details": "Emitted when `newAdminRole` is set as ``role``'s admin role, replacing `previousAdminRole` `DEFAULT_ADMIN_ROLE` is the starting admin for all roles, despite {RoleAdminChanged} not being emitted signaling this. _Available since v3.1._"
      },
      "RoleGranted(bytes32,address,address)": {
        "details": "Emitted when `account` is granted `role`. `sender` is the account that originated the contract call, an admin role bearer except when using {AccessControl-_setupRole}."
      },
      "RoleRevoked(bytes32,address,address)": {
        "details": "Emitted when `account` is revoked `role`. `sender` is the account that originated the contract call:   - if using `revokeRole`, it is the admin role bearer   - if using `renounceRole`, it is the role bearer (i.e. `account`)"
      }
    },
    "kind": "dev",
    "methods": {
      "getRoleAdmin(bytes32)": {
        "details": "Returns the admin role that controls `role`. See {grantRole} and {revokeRole}. To change a role's admin, use {_setRoleAdmin}."
      },
      "grantRole(bytes32,address)": {
        "details": "Grants `role` to `account`. If `account` had not been already granted `role`, emits a {RoleGranted} event. Requirements: - the caller must have ``role``'s admin role. May emit a {RoleGranted} event."
      },
      "hasRole(bytes32,address)": {
        "details": "Returns `true` if `account` has been granted `role`."
      },
      "renounceRole(bytes32,address)": {
        "details": "Revokes `role` from the calling account. Roles are often managed via {grantRole} and {revokeRole}: this function's purpose is to provide a mechanism for accounts to lose their privileges if they are compromised (such as when a trusted device is misplaced). If the calling account had been revoked `role`, emits a {RoleRevoked} event. Requirements: - the caller must be `account`. May emit a {RoleRevoked} event."
      },
      "revokeRole(bytes32,address)": {
        "details": "Revokes `role` from `account`. If `account` had been granted `role`, emits a {RoleRevoked} event. Requirements: - the caller must have ``role``'s admin role. May emit a {RoleRevoked} event."
      },
      "supportsInterface(bytes4)": {
        "details": "See {IERC165-supportsInterface}."
      }
    },
    "version": 1
  },
  "userdoc": {
    "kind": "user",
    "methods": {},
    "version": 1
  },
  "storageLayout": {
    "storage": [
      {
        "astId": 24,
        "contract": "contracts/DelegateRegistry.sol:DelegateRegistry",
        "label": "_roles",
        "offset": 0,
        "slot": "0",
        "type": "t_mapping(t_bytes32,t_struct(RoleData)19_storage)"
      },
      {
        "astId": 2201,
        "contract": "contracts/DelegateRegistry.sol:DelegateRegistry",
        "label": "delegates",
        "offset": 0,
        "slot": "1",
        "type": "t_mapping(t_address,t_mapping(t_address,t_mapping(t_uint256,t_uint8)))"
      },
      {
        "astId": 2205,
        "contract": "contracts/DelegateRegistry.sol:DelegateRegistry",
        "label": "nonces",
        "offset": 0,
        "slot": "2",
        "type": "t_mapping(t_address,t_uint256)"
      },
      {
        "astId": 2207,
        "contract": "contracts/DelegateRegistry.sol:DelegateRegistry",
        "label": "expiryDateForRegistryBackfill",
        "offset": 0,
        "slot": "3",
        "type": "t_uint256"
      }
    ],
    "types": {
      "t_address": {
        "encoding": "inplace",
        "label": "address",
        "numberOfBytes": "20"
      },
      "t_bool": {
        "encoding": "inplace",
        "label": "bool",
        "numberOfBytes": "1"
      },
      "t_bytes32": {
        "encoding": "inplace",
        "label": "bytes32",
        "numberOfBytes": "32"
      },
      "t_mapping(t_address,t_bool)": {
        "encoding": "mapping",
        "key": "t_address",
        "label": "mapping(address => bool)",
        "numberOfBytes": "32",
        "value": "t_bool"
      },
      "t_mapping(t_address,t_mapping(t_address,t_mapping(t_uint256,t_uint8)))": {
        "encoding": "mapping",
        "key": "t_address",
        "label": "mapping(address => mapping(address => mapping(uint256 => uint8)))",
        "numberOfBytes": "32",
        "value": "t_mapping(t_address,t_mapping(t_uint256,t_uint8))"
      },
      "t_mapping(t_address,t_mapping(t_uint256,t_uint8))": {
        "encoding": "mapping",
        "key": "t_address",
        "label": "mapping(address => mapping(uint256 => uint8))",
        "numberOfBytes": "32",
        "value": "t_mapping(t_uint256,t_uint8)"
      },
      "t_mapping(t_address,t_uint256)": {
        "encoding": "mapping",
        "key": "t_address",
        "label": "mapping(address => uint256)",
        "numberOfBytes": "32",
        "value": "t_uint256"
      },
      "t_mapping(t_bytes32,t_struct(RoleData)19_storage)": {
        "encoding": "mapping",
        "key": "t_bytes32",
        "label": "mapping(bytes32 => struct AccessControl.RoleData)",
        "numberOfBytes": "32",
        "value": "t_struct(RoleData)19_storage"
      },
      "t_mapping(t_uint256,t_uint8)": {
        "encoding": "mapping",
        "key": "t_uint256",
        "label": "mapping(uint256 => uint8)",
        "numberOfBytes": "32",
        "value": "t_uint8"
      },
      "t_struct(RoleData)19_storage": {
        "encoding": "inplace",
        "label": "struct AccessControl.RoleData",
        "members": [
          {
            "astId": 16,
            "contract": "contracts/DelegateRegistry.sol:DelegateRegistry",
            "label": "members",
            "offset": 0,
            "slot": "0",
            "type": "t_mapping(t_address,t_bool)"
          },
          {
            "astId": 18,
            "contract": "contracts/DelegateRegistry.sol:DelegateRegistry",
            "label": "adminRole",
            "offset": 0,
            "slot": "1",
            "type": "t_bytes32"
          }
        ],
        "numberOfBytes": "64"
      },
      "t_uint256": {
        "encoding": "inplace",
        "label": "uint256",
        "numberOfBytes": "32"
      },
      "t_uint8": {
        "encoding": "inplace",
        "label": "uint8",
        "numberOfBytes": "1"
      }
    }
  }
}