{
  "address": "0x4F64C583E0e99988063E858356181a1A715Dcc5d",
  "abi": [
    {
      "anonymous": false,
      "inputs": [
        {
          "indexed": true,
          "internalType": "address",
          "name": "delegateAddress",
          "type": "address"
        },
        {
          "indexed": false,
          "internalType": "address",
          "name": "tokenAddress",
          "type": "address"
        },
        {
          "indexed": false,
          "internalType": "uint256",
          "name": "tokenChainId",
          "type": "uint256"
        },
        {
          "indexed": false,
          "internalType": "bytes",
          "name": "metadata",
          "type": "bytes"
        }
      ],
      "name": "DelegateAdded",
      "type": "event"
    },
    {
      "anonymous": false,
      "inputs": [
        {
          "indexed": true,
          "internalType": "address",
          "name": "delegateAddress",
          "type": "address"
        },
        {
          "indexed": false,
          "internalType": "address",
          "name": "tokenAddress",
          "type": "address"
        },
        {
          "indexed": false,
          "internalType": "uint256",
          "name": "chainId",
          "type": "uint256"
        },
        {
          "indexed": false,
          "internalType": "bytes",
          "name": "metadata",
          "type": "bytes"
        }
      ],
      "name": "DelegateMetadataUpdated",
      "type": "event"
    },
    {
      "anonymous": false,
      "inputs": [
        {
          "indexed": true,
          "internalType": "address",
          "name": "delegateAddress",
          "type": "address"
        }
      ],
      "name": "DelegateRemoved",
      "type": "event"
    },
    {
      "inputs": [
        {
          "internalType": "address",
          "name": "",
          "type": "address"
        },
        {
          "internalType": "address",
          "name": "",
          "type": "address"
        },
        {
          "internalType": "uint256",
          "name": "",
          "type": "uint256"
        }
      ],
      "name": "delegates",
      "outputs": [
        {
          "internalType": "address",
          "name": "delegateAddress",
          "type": "address"
        },
        {
          "internalType": "address",
          "name": "tokenAddress",
          "type": "address"
        },
        {
          "internalType": "uint256",
          "name": "tokenChainId",
          "type": "uint256"
        }
      ],
      "stateMutability": "view",
      "type": "function"
    },
    {
      "inputs": [],
      "name": "deregisterDelegate",
      "outputs": [],
      "stateMutability": "nonpayable",
      "type": "function"
    },
    {
      "inputs": [
        {
          "internalType": "address",
          "name": "_delegateAddress",
          "type": "address"
        },
        {
          "internalType": "address",
          "name": "_tokenAddress",
          "type": "address"
        },
        {
          "internalType": "uint256",
          "name": "_tokenChainId",
          "type": "uint256"
        }
      ],
      "name": "getDelegate",
      "outputs": [
        {
          "components": [
            {
              "internalType": "address",
              "name": "delegateAddress",
              "type": "address"
            },
            {
              "internalType": "address",
              "name": "tokenAddress",
              "type": "address"
            },
            {
              "internalType": "uint256",
              "name": "tokenChainId",
              "type": "uint256"
            }
          ],
          "internalType": "struct DelegateRegistry.Delegate",
          "name": "",
          "type": "tuple"
        }
      ],
      "stateMutability": "view",
      "type": "function"
    },
    {
      "inputs": [
        {
          "internalType": "address",
          "name": "_tokenAddress",
          "type": "address"
        },
        {
          "internalType": "uint256",
          "name": "_tokenChainId",
          "type": "uint256"
        },
        {
          "internalType": "bytes",
          "name": "_metadata",
          "type": "bytes"
        }
      ],
      "name": "registerDelegate",
      "outputs": [],
      "stateMutability": "nonpayable",
      "type": "function"
    },
    {
      "inputs": [
        {
          "internalType": "address",
          "name": "_tokenAddress",
          "type": "address"
        },
        {
          "internalType": "uint256",
          "name": "_chainId",
          "type": "uint256"
        },
        {
          "internalType": "bytes",
          "name": "_metadata",
          "type": "bytes"
        }
      ],
      "name": "updateDelegateMetadata",
      "outputs": [],
      "stateMutability": "nonpayable",
      "type": "function"
    }
  ],
  "transactionHash": "0xa1d56a0dfea501c1efa4b8204b8bc949a45f5751dfa000e8d6375d492e6d8396",
  "args": [],
  "numDeployments": 1,
  "solcInputHash": "efaf1708320c08a68e7f2751fb4c948a",
  "bytecode": "0x608060405234801561001057600080fd5b50611014806100206000396000f3fe608060405234801561001057600080fd5b50600436106100575760003560e01c80630b8af5581461005c57806322dccbb614610078578063867a1c3414610094578063d4537e01146100c6578063dc7c32c8146100f6575b600080fd5b61007660048036038101906100719190610c0e565b610100565b005b610092600480360381019061008d9190610c0e565b61027a565b005b6100ae60048036038101906100a99190610c7d565b610563565b6040516100bd93929190610cee565b60405180910390f35b6100e060048036038101906100db9190610c7d565b6105e7565b6040516100ed9190610d85565b60405180910390f35b6100fe610745565b005b60008060003373ffffffffffffffffffffffffffffffffffffffff1673ffffffffffffffffffffffffffffffffffffffff16815260200190815260200160002060008573ffffffffffffffffffffffffffffffffffffffff1673ffffffffffffffffffffffffffffffffffffffff168152602001908152602001600020600084815260200190815260200160002090503373ffffffffffffffffffffffffffffffffffffffff168160000160009054906101000a900473ffffffffffffffffffffffffffffffffffffffff1673ffffffffffffffffffffffffffffffffffffffff1614610222576040517f08c379a000000000000000000000000000000000000000000000000000000000815260040161021990610e49565b60405180910390fd5b3373ffffffffffffffffffffffffffffffffffffffff167f1792ce4e9b813467373201776b6b900e4652342c4617c4310dd4e1322119ce8585858560405161026c93929190610ee8565b60405180910390a250505050565b600060405180606001604052803373ffffffffffffffffffffffffffffffffffffffff1681526020018573ffffffffffffffffffffffffffffffffffffffff168152602001848152509050600073ffffffffffffffffffffffffffffffffffffffff166000803373ffffffffffffffffffffffffffffffffffffffff1673ffffffffffffffffffffffffffffffffffffffff16815260200190815260200160002060008673ffffffffffffffffffffffffffffffffffffffff1673ffffffffffffffffffffffffffffffffffffffff168152602001908152602001600020600085815260200190815260200160002060000160009054906101000a900473ffffffffffffffffffffffffffffffffffffffff1673ffffffffffffffffffffffffffffffffffffffff16146103e3576040517f08c379a00000000000000000000000000000000000000000000000000000000081526004016103da90610fbe565b60405180910390fd5b806000803373ffffffffffffffffffffffffffffffffffffffff1673ffffffffffffffffffffffffffffffffffffffff16815260200190815260200160002060008673ffffffffffffffffffffffffffffffffffffffff1673ffffffffffffffffffffffffffffffffffffffff168152602001908152602001600020600085815260200190815260200160002060008201518160000160006101000a81548173ffffffffffffffffffffffffffffffffffffffff021916908373ffffffffffffffffffffffffffffffffffffffff16021790555060208201518160010160006101000a81548173ffffffffffffffffffffffffffffffffffffffff021916908373ffffffffffffffffffffffffffffffffffffffff160217905550604082015181600201559050503373ffffffffffffffffffffffffffffffffffffffff167f745af234feb2dd9e6f091e159cc055d31018712eaa530e36dd2cacb901bca91085858560405161055593929190610ee8565b60405180910390a250505050565b600060205282600052604060002060205281600052604060002060205280600052604060002060009250925050508060000160009054906101000a900473ffffffffffffffffffffffffffffffffffffffff16908060010160009054906101000a900473ffffffffffffffffffffffffffffffffffffffff16908060020154905083565b6105ef6109d3565b6000808573ffffffffffffffffffffffffffffffffffffffff1673ffffffffffffffffffffffffffffffffffffffff16815260200190815260200160002060008473ffffffffffffffffffffffffffffffffffffffff1673ffffffffffffffffffffffffffffffffffffffff16815260200190815260200160002060008381526020019081526020016000206040518060600160405290816000820160009054906101000a900473ffffffffffffffffffffffffffffffffffffffff1673ffffffffffffffffffffffffffffffffffffffff1673ffffffffffffffffffffffffffffffffffffffff1681526020016001820160009054906101000a900473ffffffffffffffffffffffffffffffffffffffff1673ffffffffffffffffffffffffffffffffffffffff1673ffffffffffffffffffffffffffffffffffffffff16815260200160028201548152505090509392505050565b600033905060008060008373ffffffffffffffffffffffffffffffffffffffff1673ffffffffffffffffffffffffffffffffffffffff16815260200190815260200160002060008373ffffffffffffffffffffffffffffffffffffffff1673ffffffffffffffffffffffffffffffffffffffff16815260200190815260200160002060008081526020019081526020016000206040518060600160405290816000820160009054906101000a900473ffffffffffffffffffffffffffffffffffffffff1673ffffffffffffffffffffffffffffffffffffffff1673ffffffffffffffffffffffffffffffffffffffff1681526020016001820160009054906101000a900473ffffffffffffffffffffffffffffffffffffffff1673ffffffffffffffffffffffffffffffffffffffff1673ffffffffffffffffffffffffffffffffffffffff16815260200160028201548152505090506000808373ffffffffffffffffffffffffffffffffffffffff1673ffffffffffffffffffffffffffffffffffffffff1681526020019081526020016000206000826020015173ffffffffffffffffffffffffffffffffffffffff1673ffffffffffffffffffffffffffffffffffffffff168152602001908152602001600020600082604001518152602001908152602001600020600080820160006101000a81549073ffffffffffffffffffffffffffffffffffffffff02191690556001820160006101000a81549073ffffffffffffffffffffffffffffffffffffffff021916905560028201600090555050806000015173ffffffffffffffffffffffffffffffffffffffff167f5a362b199d4fb2bd4e51a3436d86df24cb19b1b0890da774e2b54253d53aa4eb60405160405180910390a25050565b6040518060600160405280600073ffffffffffffffffffffffffffffffffffffffff168152602001600073ffffffffffffffffffffffffffffffffffffffff168152602001600081525090565b6000604051905090565b600080fd5b600080fd5b600073ffffffffffffffffffffffffffffffffffffffff82169050919050565b6000610a5f82610a34565b9050919050565b610a6f81610a54565b8114610a7a57600080fd5b50565b600081359050610a8c81610a66565b92915050565b6000819050919050565b610aa581610a92565b8114610ab057600080fd5b50565b600081359050610ac281610a9c565b92915050565b600080fd5b600080fd5b6000601f19601f8301169050919050565b7f4e487b7100000000000000000000000000000000000000000000000000000000600052604160045260246000fd5b610b1b82610ad2565b810181811067ffffffffffffffff82111715610b3a57610b39610ae3565b5b80604052505050565b6000610b4d610a20565b9050610b598282610b12565b919050565b600067ffffffffffffffff821115610b7957610b78610ae3565b5b610b8282610ad2565b9050602081019050919050565b82818337600083830152505050565b6000610bb1610bac84610b5e565b610b43565b905082815260208101848484011115610bcd57610bcc610acd565b5b610bd8848285610b8f565b509392505050565b600082601f830112610bf557610bf4610ac8565b5b8135610c05848260208601610b9e565b91505092915050565b600080600060608486031215610c2757610c26610a2a565b5b6000610c3586828701610a7d565b9350506020610c4686828701610ab3565b925050604084013567ffffffffffffffff811115610c6757610c66610a2f565b5b610c7386828701610be0565b9150509250925092565b600080600060608486031215610c9657610c95610a2a565b5b6000610ca486828701610a7d565b9350506020610cb586828701610a7d565b9250506040610cc686828701610ab3565b9150509250925092565b610cd981610a54565b82525050565b610ce881610a92565b82525050565b6000606082019050610d036000830186610cd0565b610d106020830185610cd0565b610d1d6040830184610cdf565b949350505050565b610d2e81610a54565b82525050565b610d3d81610a92565b82525050565b606082016000820151610d596000850182610d25565b506020820151610d6c6020850182610d25565b506040820151610d7f6040850182610d34565b50505050565b6000606082019050610d9a6000830184610d43565b92915050565b600082825260208201905092915050565b7f44656c656761746520646f6573206e6f7420657869737420666f72207468697360008201527f20616464726573732c20746f6b656e20616464726573732c20616e642063686160208201527f696e204944000000000000000000000000000000000000000000000000000000604082015250565b6000610e33604583610da0565b9150610e3e82610db1565b606082019050919050565b60006020820190508181036000830152610e6281610e26565b9050919050565b600081519050919050565b600082825260208201905092915050565b60005b83811015610ea3578082015181840152602081019050610e88565b60008484015250505050565b6000610eba82610e69565b610ec48185610e74565b9350610ed4818560208601610e85565b610edd81610ad2565b840191505092915050565b6000606082019050610efd6000830186610cd0565b610f0a6020830185610cdf565b8181036040830152610f1c8184610eaf565b9050949350505050565b7f44656c656761746520616c72656164792065786973747320666f72207468697360008201527f20616464726573732c20746f6b656e20616464726573732c20616e642063686160208201527f696e204944000000000000000000000000000000000000000000000000000000604082015250565b6000610fa8604583610da0565b9150610fb382610f26565b606082019050919050565b60006020820190508181036000830152610fd781610f9b565b905091905056fea26469706673582212203bad47fba501902613f76b48081c9deac297db506591de8f4d70308c10f7ef0764736f6c63430008130033",
  "devdoc": {
    "kind": "dev",
    "methods": {},
    "version": 1
  },
  "userdoc": {
    "kind": "user",
    "methods": {},
    "version": 1
  },
  "storageLayout": {
    "storage": [
      {
        "astId": 17,
        "contract": "contracts/DelegateRegistry.sol:DelegateRegistry",
        "label": "delegates",
        "offset": 0,
        "slot": "0",
        "type": "t_mapping(t_address,t_mapping(t_address,t_mapping(t_uint256,t_struct(Delegate)8_storage)))"
      }
    ],
    "types": {
      "t_address": {
        "encoding": "inplace",
        "label": "address",
        "numberOfBytes": "20"
      },
      "t_mapping(t_address,t_mapping(t_address,t_mapping(t_uint256,t_struct(Delegate)8_storage)))": {
        "encoding": "mapping",
        "key": "t_address",
        "label": "mapping(address => mapping(address => mapping(uint256 => struct DelegateRegistry.Delegate)))",
        "numberOfBytes": "32",
        "value": "t_mapping(t_address,t_mapping(t_uint256,t_struct(Delegate)8_storage))"
      },
      "t_mapping(t_address,t_mapping(t_uint256,t_struct(Delegate)8_storage))": {
        "encoding": "mapping",
        "key": "t_address",
        "label": "mapping(address => mapping(uint256 => struct DelegateRegistry.Delegate))",
        "numberOfBytes": "32",
        "value": "t_mapping(t_uint256,t_struct(Delegate)8_storage)"
      },
      "t_mapping(t_uint256,t_struct(Delegate)8_storage)": {
        "encoding": "mapping",
        "key": "t_uint256",
        "label": "mapping(uint256 => struct DelegateRegistry.Delegate)",
        "numberOfBytes": "32",
        "value": "t_struct(Delegate)8_storage"
      },
      "t_struct(Delegate)8_storage": {
        "encoding": "inplace",
        "label": "struct DelegateRegistry.Delegate",
        "members": [
          {
            "astId": 3,
            "contract": "contracts/DelegateRegistry.sol:DelegateRegistry",
            "label": "delegateAddress",
            "offset": 0,
            "slot": "0",
            "type": "t_address"
          },
          {
            "astId": 5,
            "contract": "contracts/DelegateRegistry.sol:DelegateRegistry",
            "label": "tokenAddress",
            "offset": 0,
            "slot": "1",
            "type": "t_address"
          },
          {
            "astId": 7,
            "contract": "contracts/DelegateRegistry.sol:DelegateRegistry",
            "label": "tokenChainId",
            "offset": 0,
            "slot": "2",
            "type": "t_uint256"
          }
        ],
        "numberOfBytes": "96"
      },
      "t_uint256": {
        "encoding": "inplace",
        "label": "uint256",
        "numberOfBytes": "32"
      }
    }
  }
}