{
  "address": "0xd17206EC4D268D0E55bb08A369b6864f1178B81d",
  "abi": [
    {
      "inputs": [
        {
          "internalType": "address",
          "name": "admin",
          "type": "address"
        }
      ],
      "stateMutability": "nonpayable",
      "type": "constructor"
    },
    {
      "anonymous": false,
      "inputs": [
        {
          "indexed": true,
          "internalType": "address",
          "name": "delegateAddress",
          "type": "address"
        },
        {
          "indexed": true,
          "internalType": "address",
          "name": "tokenAddress",
          "type": "address"
        },
        {
          "indexed": false,
          "internalType": "uint256",
          "name": "tokenChainId",
          "type": "uint256"
        },
        {
          "indexed": false,
          "internalType": "string",
          "name": "metadata",
          "type": "string"
        }
      ],
      "name": "DelegateAdded",
      "type": "event"
    },
    {
      "anonymous": false,
      "inputs": [
        {
          "indexed": true,
          "internalType": "address",
          "name": "delegateAddress",
          "type": "address"
        },
        {
          "indexed": true,
          "internalType": "address",
          "name": "tokenAddress",
          "type": "address"
        },
        {
          "indexed": false,
          "internalType": "uint256",
          "name": "tokenChainId",
          "type": "uint256"
        }
      ],
      "name": "DelegateRemoved",
      "type": "event"
    },
    {
      "anonymous": false,
      "inputs": [
        {
          "indexed": true,
          "internalType": "bytes32",
          "name": "role",
          "type": "bytes32"
        },
        {
          "indexed": true,
          "internalType": "bytes32",
          "name": "previousAdminRole",
          "type": "bytes32"
        },
        {
          "indexed": true,
          "internalType": "bytes32",
          "name": "newAdminRole",
          "type": "bytes32"
        }
      ],
      "name": "RoleAdminChanged",
      "type": "event"
    },
    {
      "anonymous": false,
      "inputs": [
        {
          "indexed": true,
          "internalType": "bytes32",
          "name": "role",
          "type": "bytes32"
        },
        {
          "indexed": true,
          "internalType": "address",
          "name": "account",
          "type": "address"
        },
        {
          "indexed": true,
          "internalType": "address",
          "name": "sender",
          "type": "address"
        }
      ],
      "name": "RoleGranted",
      "type": "event"
    },
    {
      "anonymous": false,
      "inputs": [
        {
          "indexed": true,
          "internalType": "bytes32",
          "name": "role",
          "type": "bytes32"
        },
        {
          "indexed": true,
          "internalType": "address",
          "name": "account",
          "type": "address"
        },
        {
          "indexed": true,
          "internalType": "address",
          "name": "sender",
          "type": "address"
        }
      ],
      "name": "RoleRevoked",
      "type": "event"
    },
    {
      "inputs": [],
      "name": "DEFAULT_ADMIN_ROLE",
      "outputs": [
        {
          "internalType": "bytes32",
          "name": "",
          "type": "bytes32"
        }
      ],
      "stateMutability": "view",
      "type": "function"
    },
    {
      "inputs": [],
      "name": "DEREGISTER_TYPEHASH",
      "outputs": [
        {
          "internalType": "bytes32",
          "name": "",
          "type": "bytes32"
        }
      ],
      "stateMutability": "view",
      "type": "function"
    },
    {
      "inputs": [],
      "name": "PROVIDER_ROLE",
      "outputs": [
        {
          "internalType": "bytes32",
          "name": "",
          "type": "bytes32"
        }
      ],
      "stateMutability": "view",
      "type": "function"
    },
    {
      "inputs": [],
      "name": "REGISTER_TYPEHASH",
      "outputs": [
        {
          "internalType": "bytes32",
          "name": "",
          "type": "bytes32"
        }
      ],
      "stateMutability": "view",
      "type": "function"
    },
    {
      "inputs": [
        {
          "internalType": "address",
          "name": "",
          "type": "address"
        },
        {
          "internalType": "address",
          "name": "",
          "type": "address"
        },
        {
          "internalType": "uint256",
          "name": "",
          "type": "uint256"
        }
      ],
      "name": "delegates",
      "outputs": [
        {
          "internalType": "uint8",
          "name": "",
          "type": "uint8"
        }
      ],
      "stateMutability": "view",
      "type": "function"
    },
    {
      "inputs": [
        {
          "internalType": "address",
          "name": "tokenAddress",
          "type": "address"
        },
        {
          "internalType": "uint256",
          "name": "tokenChainId",
          "type": "uint256"
        }
      ],
      "name": "deregisterDelegate",
      "outputs": [],
      "stateMutability": "nonpayable",
      "type": "function"
    },
    {
      "inputs": [
        {
          "internalType": "address",
          "name": "tokenAddress",
          "type": "address"
        },
        {
          "internalType": "uint256",
          "name": "tokenChainId",
          "type": "uint256"
        },
        {
          "internalType": "uint256",
          "name": "nonce",
          "type": "uint256"
        },
        {
          "internalType": "uint256",
          "name": "expiry",
          "type": "uint256"
        },
        {
          "internalType": "uint8",
          "name": "v",
          "type": "uint8"
        },
        {
          "internalType": "bytes32",
          "name": "r",
          "type": "bytes32"
        },
        {
          "internalType": "bytes32",
          "name": "s",
          "type": "bytes32"
        }
      ],
      "name": "deregisterDelegateBySig",
      "outputs": [],
      "stateMutability": "nonpayable",
      "type": "function"
    },
    {
      "inputs": [],
      "name": "expiryDateForRegistryBackfill",
      "outputs": [
        {
          "internalType": "uint256",
          "name": "",
          "type": "uint256"
        }
      ],
      "stateMutability": "view",
      "type": "function"
    },
    {
      "inputs": [
        {
          "internalType": "bytes32",
          "name": "role",
          "type": "bytes32"
        }
      ],
      "name": "getRoleAdmin",
      "outputs": [
        {
          "internalType": "bytes32",
          "name": "",
          "type": "bytes32"
        }
      ],
      "stateMutability": "view",
      "type": "function"
    },
    {
      "inputs": [
        {
          "internalType": "bytes32",
          "name": "role",
          "type": "bytes32"
        },
        {
          "internalType": "address",
          "name": "account",
          "type": "address"
        }
      ],
      "name": "grantRole",
      "outputs": [],
      "stateMutability": "nonpayable",
      "type": "function"
    },
    {
      "inputs": [
        {
          "internalType": "bytes32",
          "name": "role",
          "type": "bytes32"
        },
        {
          "internalType": "address",
          "name": "account",
          "type": "address"
        }
      ],
      "name": "hasRole",
      "outputs": [
        {
          "internalType": "bool",
          "name": "",
          "type": "bool"
        }
      ],
      "stateMutability": "view",
      "type": "function"
    },
    {
      "inputs": [
        {
          "internalType": "address",
          "name": "delegateAddress",
          "type": "address"
        },
        {
          "internalType": "address",
          "name": "tokenAddress",
          "type": "address"
        },
        {
          "internalType": "uint256",
          "name": "tokenChainId",
          "type": "uint256"
        }
      ],
      "name": "isDelegateRegistered",
      "outputs": [
        {
          "internalType": "uint8",
          "name": "isRegistered",
          "type": "uint8"
        }
      ],
      "stateMutability": "view",
      "type": "function"
    },
    {
      "inputs": [
        {
          "internalType": "address",
          "name": "",
          "type": "address"
        }
      ],
      "name": "nonces",
      "outputs": [
        {
          "internalType": "uint256",
          "name": "",
          "type": "uint256"
        }
      ],
      "stateMutability": "view",
      "type": "function"
    },
    {
      "inputs": [
        {
          "internalType": "address",
          "name": "tokenAddress",
          "type": "address"
        },
        {
          "internalType": "uint256",
          "name": "tokenChainId",
          "type": "uint256"
        },
        {
          "internalType": "string",
          "name": "metadata",
          "type": "string"
        }
      ],
      "name": "registerDelegate",
      "outputs": [],
      "stateMutability": "nonpayable",
      "type": "function"
    },
    {
      "inputs": [
        {
          "internalType": "address",
          "name": "delegateAddress",
          "type": "address"
        },
        {
          "internalType": "address",
          "name": "tokenAddress",
          "type": "address"
        },
        {
          "internalType": "uint256",
          "name": "tokenChainId",
          "type": "uint256"
        },
        {
          "internalType": "string",
          "name": "metadata",
          "type": "string"
        },
        {
          "internalType": "uint256",
          "name": "nonce",
          "type": "uint256"
        },
        {
          "internalType": "uint256",
          "name": "expiry",
          "type": "uint256"
        },
        {
          "internalType": "uint8",
          "name": "v",
          "type": "uint8"
        },
        {
          "internalType": "bytes32",
          "name": "r",
          "type": "bytes32"
        },
        {
          "internalType": "bytes32",
          "name": "s",
          "type": "bytes32"
        }
      ],
      "name": "registerDelegateBySig",
      "outputs": [],
      "stateMutability": "nonpayable",
      "type": "function"
    },
    {
      "inputs": [
        {
          "internalType": "bytes32",
          "name": "role",
          "type": "bytes32"
        },
        {
          "internalType": "address",
          "name": "account",
          "type": "address"
        }
      ],
      "name": "renounceRole",
      "outputs": [],
      "stateMutability": "nonpayable",
      "type": "function"
    },
    {
      "inputs": [
        {
          "internalType": "bytes32",
          "name": "role",
          "type": "bytes32"
        },
        {
          "internalType": "address",
          "name": "account",
          "type": "address"
        }
      ],
      "name": "revokeRole",
      "outputs": [],
      "stateMutability": "nonpayable",
      "type": "function"
    },
    {
      "inputs": [
        {
          "internalType": "uint256",
          "name": "expiry",
          "type": "uint256"
        }
      ],
      "name": "setExpiryDateForRegistryBackfill",
      "outputs": [],
      "stateMutability": "nonpayable",
      "type": "function"
    },
    {
      "inputs": [
        {
          "internalType": "bytes4",
          "name": "interfaceId",
          "type": "bytes4"
        }
      ],
      "name": "supportsInterface",
      "outputs": [
        {
          "internalType": "bool",
          "name": "",
          "type": "bool"
        }
      ],
      "stateMutability": "view",
      "type": "function"
    },
    {
      "inputs": [
        {
          "internalType": "address",
          "name": "delegateAddress",
          "type": "address"
        },
        {
          "internalType": "address",
          "name": "tokenAddress",
          "type": "address"
        },
        {
          "internalType": "uint256",
          "name": "tokenChainId",
          "type": "uint256"
        },
        {
          "internalType": "string",
          "name": "metadata",
          "type": "string"
        }
      ],
      "name": "uploadDelegate",
      "outputs": [],
      "stateMutability": "nonpayable",
      "type": "function"
    }
  ],
  "transactionHash": "0x455f30551663ecadd487176e695afc0dc13d623a04edabc89a615f4a21ead193",
  "args": [
    "0xf768f5F340e89698465Fc7C12F31cB485fFf98D2"
  ],
  "numDeployments": 1,
  "solcInputHash": "ae81f8cac0565bb0c2dd3a22816d8a15",
  "bytecode": "0x6101406040523480156200001257600080fd5b5060405162002da638038062002da683398181016040528101906200003891906200037b565b6040518060400160405280601181526020017f64656c65676174652d72656769737472790000000000000000000000000000008152506040518060400160405280600381526020017f312e30000000000000000000000000000000000000000000000000000000000081525060008280519060200120905060008280519060200120905060007f8b73c3c69bb8fe3d512ecc4cf759cc79239f7b179b0ffacaa9a75d522b39400f90508260e081815250508161010081815250504660a081815250506200010d8184846200017260201b60201c565b608081815250503073ffffffffffffffffffffffffffffffffffffffff1660c08173ffffffffffffffffffffffffffffffffffffffff168152505080610120818152505050505050506200016b6000801b82620001ae60201b60201c565b5062000451565b600083838346306040516020016200018f959493929190620003f4565b6040516020818303038152906040528051906020012090509392505050565b620001c082826200029f60201b60201c565b6200029b57600160008084815260200190815260200160002060000160008373ffffffffffffffffffffffffffffffffffffffff1673ffffffffffffffffffffffffffffffffffffffff16815260200190815260200160002060006101000a81548160ff021916908315150217905550620002406200030960201b60201c565b73ffffffffffffffffffffffffffffffffffffffff168173ffffffffffffffffffffffffffffffffffffffff16837f2f8788117e7eff1d82e926ec794901d17c78024a50270940304540a733656f0d60405160405180910390a45b5050565b600080600084815260200190815260200160002060000160008373ffffffffffffffffffffffffffffffffffffffff1673ffffffffffffffffffffffffffffffffffffffff16815260200190815260200160002060009054906101000a900460ff16905092915050565b600033905090565b600080fd5b600073ffffffffffffffffffffffffffffffffffffffff82169050919050565b6000620003438262000316565b9050919050565b620003558162000336565b81146200036157600080fd5b50565b60008151905062000375816200034a565b92915050565b60006020828403121562000394576200039362000311565b5b6000620003a48482850162000364565b91505092915050565b6000819050919050565b620003c281620003ad565b82525050565b6000819050919050565b620003dd81620003c8565b82525050565b620003ee8162000336565b82525050565b600060a0820190506200040b6000830188620003b7565b6200041a6020830187620003b7565b620004296040830186620003b7565b620004386060830185620003d2565b620004476080830184620003e3565b9695505050505050565b60805160a05160c05160e0516101005161012051612905620004a16000396000611056015260006110980152600061107701526000610fac015260006110020152600061102b01526129056000f3fe608060405234801561001057600080fd5b506004361061012c5760003560e01c80636a5306a3116100ad57806391d148541161007157806391d14854146103415780639840046614610371578063a217fddf1461038d578063b7967cf3146103ab578063d547741f146103c75761012c565b80636a5306a31461028b578063733ed1c9146102a9578063779de8b5146102c55780637ecebe00146102e1578063867a1c34146103115761012c565b806324c20a34116100f457806324c20a34146101f95780632f2ff15d1461021757806336568abe14610233578063545c022a1461024f5780635d47d7791461026d5761012c565b806301ffc9a7146101315780631a7f61a5146101615780631bdec8521461017d578063228ce01414610199578063248a9ca3146101c9575b600080fd5b61014b600480360381019061014691906116d1565b6103e3565b6040516101589190611719565b60405180910390f35b61017b60048036038101906101769190611837565b61045d565b005b610197600480360381019061019291906118d9565b6105b0565b005b6101b360048036038101906101ae9190611919565b6105bf565b6040516101c0919061197b565b60405180910390f35b6101e360048036038101906101de9190611996565b610665565b6040516101f091906119d2565b60405180910390f35b610201610684565b60405161020e91906119d2565b60405180910390f35b610231600480360381019061022c91906119ed565b6106a8565b005b61024d600480360381019061024891906119ed565b6106c9565b005b61025761074c565b6040516102649190611a3c565b60405180910390f35b610275610752565b60405161028291906119d2565b60405180910390f35b610293610776565b6040516102a091906119d2565b60405180910390f35b6102c360048036038101906102be9190611b9d565b61079a565b005b6102df60048036038101906102da9190611c0c565b6107ab565b005b6102fb60048036038101906102f69190611c8f565b61082d565b6040516103089190611a3c565b60405180910390f35b61032b60048036038101906103269190611919565b610845565b604051610338919061197b565b60405180910390f35b61035b600480360381019061035691906119ed565b610881565b6040516103689190611719565b60405180910390f35b61038b60048036038101906103869190611cbc565b6108eb565b005b610395610ab8565b6040516103a291906119d2565b60405180910390f35b6103c560048036038101906103c09190611da2565b610abf565b005b6103e160048036038101906103dc91906119ed565b610ad7565b005b60007f7965db0b000000000000000000000000000000000000000000000000000000007bffffffffffffffffffffffffffffffffffffffffffffffffffffffff1916827bffffffffffffffffffffffffffffffffffffffffffffffffffffffff19161480610456575061045582610af8565b5b9050919050565b834211156104a0576040517f08c379a000000000000000000000000000000000000000000000000000000000815260040161049790611e52565b60405180910390fd5b60006105046104fc7fb49ef440e034b80c5563a6367f2ed85be6cd5ed142b9818159faf97273dc6aa68a8a8a8a6040516020016104e1959493929190611e81565b60405160208183030381529060405280519060200120610b62565b858585610b7c565b9050600260008273ffffffffffffffffffffffffffffffffffffffff1673ffffffffffffffffffffffffffffffffffffffff168152602001908152602001600020600081548092919061055690611f03565b91905055861461059b576040517f08c379a000000000000000000000000000000000000000000000000000000000815260040161059290611fbd565b60405180910390fd5b6105a6818989610ba7565b5050505050505050565b6105bb338383610ba7565b5050565b6000600160008573ffffffffffffffffffffffffffffffffffffffff1673ffffffffffffffffffffffffffffffffffffffff16815260200190815260200160002060008473ffffffffffffffffffffffffffffffffffffffff1673ffffffffffffffffffffffffffffffffffffffff168152602001908152602001600020600083815260200190815260200160002060009054906101000a900460ff1690509392505050565b6000806000838152602001908152602001600020600101549050919050565b7f18d9ff454de989bd126b06bd404b47ede75f9e65543e94e8d212f89d7dcbb87c81565b6106b182610665565b6106ba81610cb8565b6106c48383610ccc565b505050565b6106d1610dac565b73ffffffffffffffffffffffffffffffffffffffff168173ffffffffffffffffffffffffffffffffffffffff161461073e576040517f08c379a00000000000000000000000000000000000000000000000000000000081526004016107359061204f565b60405180910390fd5b6107488282610db4565b5050565b60035481565b7fb49ef440e034b80c5563a6367f2ed85be6cd5ed142b9818159faf97273dc6aa681565b7f62f336915c19779a574ca5ec6e327da56f347d8e548daf06f207c3d4d381c81481565b6107a633848484610e95565b505050565b7f18d9ff454de989bd126b06bd404b47ede75f9e65543e94e8d212f89d7dcbb87c6107d581610cb8565b60035442111561081a576040517f08c379a0000000000000000000000000000000000000000000000000000000008152600401610811906120e1565b60405180910390fd5b61082685858585610e95565b5050505050565b60026020528060005260406000206000915090505481565b6001602052826000526040600020602052816000526040600020602052806000526040600020600092509250509054906101000a900460ff1681565b600080600084815260200190815260200160002060000160008373ffffffffffffffffffffffffffffffffffffffff1673ffffffffffffffffffffffffffffffffffffffff16815260200190815260200160002060009054906101000a900460ff16905092915050565b8342111561092e576040517f08c379a000000000000000000000000000000000000000000000000000000000815260040161092590612173565b60405180910390fd5b600061099b6109937f62f336915c19779a574ca5ec6e327da56f347d8e548daf06f207c3d4d381c8148b8b8b805190602001208b8b60405160200161097896959493929190612193565b60405160208183030381529060405280519060200120610b62565b858585610b7c565b90508073ffffffffffffffffffffffffffffffffffffffff168a73ffffffffffffffffffffffffffffffffffffffff1614610a0b576040517f08c379a0000000000000000000000000000000000000000000000000000000008152600401610a0290612266565b60405180910390fd5b600260008273ffffffffffffffffffffffffffffffffffffffff1673ffffffffffffffffffffffffffffffffffffffff1681526020019081526020016000206000815480929190610a5b90611f03565b919050558614610aa0576040517f08c379a0000000000000000000000000000000000000000000000000000000008152600401610a97906122d2565b60405180910390fd5b610aac818a8a8a610e95565b50505050505050505050565b6000801b81565b6000801b610acc81610cb8565b816003819055505050565b610ae082610665565b610ae981610cb8565b610af38383610db4565b505050565b60007f01ffc9a7000000000000000000000000000000000000000000000000000000007bffffffffffffffffffffffffffffffffffffffffffffffffffffffff1916827bffffffffffffffffffffffffffffffffffffffffffffffffffffffff1916149050919050565b6000610b75610b6f610fa8565b836110c2565b9050919050565b6000806000610b8d878787876110f5565b91509150610b9a816111d7565b8192505050949350505050565b6000600160008573ffffffffffffffffffffffffffffffffffffffff1673ffffffffffffffffffffffffffffffffffffffff16815260200190815260200160002060008473ffffffffffffffffffffffffffffffffffffffff1673ffffffffffffffffffffffffffffffffffffffff168152602001908152602001600020600083815260200190815260200160002060006101000a81548160ff021916908360ff1602179055508173ffffffffffffffffffffffffffffffffffffffff168373ffffffffffffffffffffffffffffffffffffffff167fec7796ac22cd691744830d7a8a9a7d21752be77e84ebc1ee5dca0ae6e47d9da383604051610cab9190611a3c565b60405180910390a3505050565b610cc981610cc4610dac565b61133d565b50565b610cd68282610881565b610da857600160008084815260200190815260200160002060000160008373ffffffffffffffffffffffffffffffffffffffff1673ffffffffffffffffffffffffffffffffffffffff16815260200190815260200160002060006101000a81548160ff021916908315150217905550610d4d610dac565b73ffffffffffffffffffffffffffffffffffffffff168173ffffffffffffffffffffffffffffffffffffffff16837f2f8788117e7eff1d82e926ec794901d17c78024a50270940304540a733656f0d60405160405180910390a45b5050565b600033905090565b610dbe8282610881565b15610e9157600080600084815260200190815260200160002060000160008373ffffffffffffffffffffffffffffffffffffffff1673ffffffffffffffffffffffffffffffffffffffff16815260200190815260200160002060006101000a81548160ff021916908315150217905550610e36610dac565b73ffffffffffffffffffffffffffffffffffffffff168173ffffffffffffffffffffffffffffffffffffffff16837ff6391f5c32d9c69d2a47ea670b442974b53935d1edc7fd64eb21e047a839171b60405160405180910390a45b5050565b60018060008673ffffffffffffffffffffffffffffffffffffffff1673ffffffffffffffffffffffffffffffffffffffff16815260200190815260200160002060008573ffffffffffffffffffffffffffffffffffffffff1673ffffffffffffffffffffffffffffffffffffffff168152602001908152602001600020600084815260200190815260200160002060006101000a81548160ff021916908360ff1602179055508273ffffffffffffffffffffffffffffffffffffffff168473ffffffffffffffffffffffffffffffffffffffff167ff8062ac22dc3b85838812d1c14968311ef4bda78cf9f74aba563533ad670c4178484604051610f9a929190612360565b60405180910390a350505050565b60007f000000000000000000000000000000000000000000000000000000000000000073ffffffffffffffffffffffffffffffffffffffff163073ffffffffffffffffffffffffffffffffffffffff1614801561102457507f000000000000000000000000000000000000000000000000000000000000000046145b15611051577f000000000000000000000000000000000000000000000000000000000000000090506110bf565b6110bc7f00000000000000000000000000000000000000000000000000000000000000007f00000000000000000000000000000000000000000000000000000000000000007f00000000000000000000000000000000000000000000000000000000000000006113c2565b90505b90565b600082826040516020016110d7929190612408565b60405160208183030381529060405280519060200120905092915050565b6000807f7fffffffffffffffffffffffffffffff5d576e7357a4501ddfe92f46681b20a08360001c11156111305760006003915091506111ce565b600060018787878760405160008152602001604052604051611155949392919061243f565b6020604051602081039080840390855afa158015611177573d6000803e3d6000fd5b505050602060405103519050600073ffffffffffffffffffffffffffffffffffffffff168173ffffffffffffffffffffffffffffffffffffffff16036111c5576000600192509250506111ce565b80600092509250505b94509492505050565b600060048111156111eb576111ea612484565b5b8160048111156111fe576111fd612484565b5b031561133a576001600481111561121857611217612484565b5b81600481111561122b5761122a612484565b5b0361126b576040517f08c379a0000000000000000000000000000000000000000000000000000000008152600401611262906124ff565b60405180910390fd5b6002600481111561127f5761127e612484565b5b81600481111561129257611291612484565b5b036112d2576040517f08c379a00000000000000000000000000000000000000000000000000000000081526004016112c99061256b565b60405180910390fd5b600360048111156112e6576112e5612484565b5b8160048111156112f9576112f8612484565b5b03611339576040517f08c379a0000000000000000000000000000000000000000000000000000000008152600401611330906125fd565b60405180910390fd5b5b50565b6113478282610881565b6113be57611354816113fc565b6113628360001c6020611429565b6040516020016113739291906126e6565b6040516020818303038152906040526040517f08c379a00000000000000000000000000000000000000000000000000000000081526004016113b59190612720565b60405180910390fd5b5050565b600083838346306040516020016113dd959493929190612742565b6040516020818303038152906040528051906020012090509392505050565b60606114228273ffffffffffffffffffffffffffffffffffffffff16601460ff16611429565b9050919050565b60606000600283600261143c9190612795565b61144691906127d7565b67ffffffffffffffff81111561145f5761145e611a72565b5b6040519080825280601f01601f1916602001820160405280156114915781602001600182028036833780820191505090505b5090507f3000000000000000000000000000000000000000000000000000000000000000816000815181106114c9576114c861280b565b5b60200101907effffffffffffffffffffffffffffffffffffffffffffffffffffffffffffff1916908160001a9053507f78000000000000000000000000000000000000000000000000000000000000008160018151811061152d5761152c61280b565b5b60200101907effffffffffffffffffffffffffffffffffffffffffffffffffffffffffffff1916908160001a9053506000600184600261156d9190612795565b61157791906127d7565b90505b6001811115611617577f3031323334353637383961626364656600000000000000000000000000000000600f8616601081106115b9576115b861280b565b5b1a60f81b8282815181106115d0576115cf61280b565b5b60200101907effffffffffffffffffffffffffffffffffffffffffffffffffffffffffffff1916908160001a905350600485901c9450806116109061283a565b905061157a565b506000841461165b576040517f08c379a0000000000000000000000000000000000000000000000000000000008152600401611652906128af565b60405180910390fd5b8091505092915050565b6000604051905090565b600080fd5b600080fd5b60007fffffffff0000000000000000000000000000000000000000000000000000000082169050919050565b6116ae81611679565b81146116b957600080fd5b50565b6000813590506116cb816116a5565b92915050565b6000602082840312156116e7576116e661166f565b5b60006116f5848285016116bc565b91505092915050565b60008115159050919050565b611713816116fe565b82525050565b600060208201905061172e600083018461170a565b92915050565b600073ffffffffffffffffffffffffffffffffffffffff82169050919050565b600061175f82611734565b9050919050565b61176f81611754565b811461177a57600080fd5b50565b60008135905061178c81611766565b92915050565b6000819050919050565b6117a581611792565b81146117b057600080fd5b50565b6000813590506117c28161179c565b92915050565b600060ff82169050919050565b6117de816117c8565b81146117e957600080fd5b50565b6000813590506117fb816117d5565b92915050565b6000819050919050565b61181481611801565b811461181f57600080fd5b50565b6000813590506118318161180b565b92915050565b600080600080600080600060e0888a0312156118565761185561166f565b5b60006118648a828b0161177d565b97505060206118758a828b016117b3565b96505060406118868a828b016117b3565b95505060606118978a828b016117b3565b94505060806118a88a828b016117ec565b93505060a06118b98a828b01611822565b92505060c06118ca8a828b01611822565b91505092959891949750929550565b600080604083850312156118f0576118ef61166f565b5b60006118fe8582860161177d565b925050602061190f858286016117b3565b9150509250929050565b6000806000606084860312156119325761193161166f565b5b60006119408682870161177d565b93505060206119518682870161177d565b9250506040611962868287016117b3565b9150509250925092565b611975816117c8565b82525050565b6000602082019050611990600083018461196c565b92915050565b6000602082840312156119ac576119ab61166f565b5b60006119ba84828501611822565b91505092915050565b6119cc81611801565b82525050565b60006020820190506119e760008301846119c3565b92915050565b60008060408385031215611a0457611a0361166f565b5b6000611a1285828601611822565b9250506020611a238582860161177d565b9150509250929050565b611a3681611792565b82525050565b6000602082019050611a516000830184611a2d565b92915050565b600080fd5b600080fd5b6000601f19601f8301169050919050565b7f4e487b7100000000000000000000000000000000000000000000000000000000600052604160045260246000fd5b611aaa82611a61565b810181811067ffffffffffffffff82111715611ac957611ac8611a72565b5b80604052505050565b6000611adc611665565b9050611ae88282611aa1565b919050565b600067ffffffffffffffff821115611b0857611b07611a72565b5b611b1182611a61565b9050602081019050919050565b82818337600083830152505050565b6000611b40611b3b84611aed565b611ad2565b905082815260208101848484011115611b5c57611b5b611a5c565b5b611b67848285611b1e565b509392505050565b600082601f830112611b8457611b83611a57565b5b8135611b94848260208601611b2d565b91505092915050565b600080600060608486031215611bb657611bb561166f565b5b6000611bc48682870161177d565b9350506020611bd5868287016117b3565b925050604084013567ffffffffffffffff811115611bf657611bf5611674565b5b611c0286828701611b6f565b9150509250925092565b60008060008060808587031215611c2657611c2561166f565b5b6000611c348782880161177d565b9450506020611c458782880161177d565b9350506040611c56878288016117b3565b925050606085013567ffffffffffffffff811115611c7757611c76611674565b5b611c8387828801611b6f565b91505092959194509250565b600060208284031215611ca557611ca461166f565b5b6000611cb38482850161177d565b91505092915050565b60008060008060008060008060006101208a8c031215611cdf57611cde61166f565b5b6000611ced8c828d0161177d565b9950506020611cfe8c828d0161177d565b9850506040611d0f8c828d016117b3565b97505060608a013567ffffffffffffffff811115611d3057611d2f611674565b5b611d3c8c828d01611b6f565b9650506080611d4d8c828d016117b3565b95505060a0611d5e8c828d016117b3565b94505060c0611d6f8c828d016117ec565b93505060e0611d808c828d01611822565b925050610100611d928c828d01611822565b9150509295985092959850929598565b600060208284031215611db857611db761166f565b5b6000611dc6848285016117b3565b91505092915050565b600082825260208201905092915050565b7f4465726567697374657244656c65676174653a207369676e617475726520657860008201527f7069726564000000000000000000000000000000000000000000000000000000602082015250565b6000611e3c602583611dcf565b9150611e4782611de0565b604082019050919050565b60006020820190508181036000830152611e6b81611e2f565b9050919050565b611e7b81611754565b82525050565b600060a082019050611e9660008301886119c3565b611ea36020830187611e72565b611eb06040830186611a2d565b611ebd6060830185611a2d565b611eca6080830184611a2d565b9695505050505050565b7f4e487b7100000000000000000000000000000000000000000000000000000000600052601160045260246000fd5b6000611f0e82611792565b91507fffffffffffffffffffffffffffffffffffffffffffffffffffffffffffffffff8203611f4057611f3f611ed4565b5b600182019050919050565b7f4465726567697374657244656c65676174653a20696e76616c6964206e6f6e6360008201527f6500000000000000000000000000000000000000000000000000000000000000602082015250565b6000611fa7602183611dcf565b9150611fb282611f4b565b604082019050919050565b60006020820190508181036000830152611fd681611f9a565b9050919050565b7f416363657373436f6e74726f6c3a2063616e206f6e6c792072656e6f756e636560008201527f20726f6c657320666f722073656c660000000000000000000000000000000000602082015250565b6000612039602f83611dcf565b915061204482611fdd565b604082019050919050565b600060208201905081810360008301526120688161202c565b9050919050565b7f526567697374657244656c65676174653a207265676973747279206261636b6660008201527f696c6c20706572696f6420686173206578706972656400000000000000000000602082015250565b60006120cb603683611dcf565b91506120d68261206f565b604082019050919050565b600060208201905081810360008301526120fa816120be565b9050919050565b7f526567697374657244656c65676174653a207369676e6174757265206578706960008201527f7265640000000000000000000000000000000000000000000000000000000000602082015250565b600061215d602383611dcf565b915061216882612101565b604082019050919050565b6000602082019050818103600083015261218c81612150565b9050919050565b600060c0820190506121a860008301896119c3565b6121b56020830188611e72565b6121c26040830187611a2d565b6121cf60608301866119c3565b6121dc6080830185611a2d565b6121e960a0830184611a2d565b979650505050505050565b7f5369676e657220616e642064656c65676174652061646472657373657320646f60008201527f6e2774206d617463680000000000000000000000000000000000000000000000602082015250565b6000612250602983611dcf565b915061225b826121f4565b604082019050919050565b6000602082019050818103600083015261227f81612243565b9050919050565b7f526567697374657244656c65676174653a20696e76616c6964206e6f6e636500600082015250565b60006122bc601f83611dcf565b91506122c782612286565b602082019050919050565b600060208201905081810360008301526122eb816122af565b9050919050565b600081519050919050565b60005b8381101561231b578082015181840152602081019050612300565b60008484015250505050565b6000612332826122f2565b61233c8185611dcf565b935061234c8185602086016122fd565b61235581611a61565b840191505092915050565b60006040820190506123756000830185611a2d565b81810360208301526123878184612327565b90509392505050565b600081905092915050565b7f1901000000000000000000000000000000000000000000000000000000000000600082015250565b60006123d1600283612390565b91506123dc8261239b565b600282019050919050565b6000819050919050565b6124026123fd82611801565b6123e7565b82525050565b6000612413826123c4565b915061241f82856123f1565b60208201915061242f82846123f1565b6020820191508190509392505050565b600060808201905061245460008301876119c3565b612461602083018661196c565b61246e60408301856119c3565b61247b60608301846119c3565b95945050505050565b7f4e487b7100000000000000000000000000000000000000000000000000000000600052602160045260246000fd5b7f45434453413a20696e76616c6964207369676e61747572650000000000000000600082015250565b60006124e9601883611dcf565b91506124f4826124b3565b602082019050919050565b60006020820190508181036000830152612518816124dc565b9050919050565b7f45434453413a20696e76616c6964207369676e6174757265206c656e67746800600082015250565b6000612555601f83611dcf565b91506125608261251f565b602082019050919050565b6000602082019050818103600083015261258481612548565b9050919050565b7f45434453413a20696e76616c6964207369676e6174757265202773272076616c60008201527f7565000000000000000000000000000000000000000000000000000000000000602082015250565b60006125e7602283611dcf565b91506125f28261258b565b604082019050919050565b60006020820190508181036000830152612616816125da565b9050919050565b7f416363657373436f6e74726f6c3a206163636f756e7420000000000000000000600082015250565b6000612653601783612390565b915061265e8261261d565b601782019050919050565b6000612674826122f2565b61267e8185612390565b935061268e8185602086016122fd565b80840191505092915050565b7f206973206d697373696e6720726f6c6520000000000000000000000000000000600082015250565b60006126d0601183612390565b91506126db8261269a565b601182019050919050565b60006126f182612646565b91506126fd8285612669565b9150612708826126c3565b91506127148284612669565b91508190509392505050565b6000602082019050818103600083015261273a8184612327565b905092915050565b600060a08201905061275760008301886119c3565b61276460208301876119c3565b61277160408301866119c3565b61277e6060830185611a2d565b61278b6080830184611e72565b9695505050505050565b60006127a082611792565b91506127ab83611792565b92508282026127b981611792565b915082820484148315176127d0576127cf611ed4565b5b5092915050565b60006127e282611792565b91506127ed83611792565b925082820190508082111561280557612804611ed4565b5b92915050565b7f4e487b7100000000000000000000000000000000000000000000000000000000600052603260045260246000fd5b600061284582611792565b91506000820361285857612857611ed4565b5b600182039050919050565b7f537472696e67733a20686578206c656e67746820696e73756666696369656e74600082015250565b6000612899602083611dcf565b91506128a482612863565b602082019050919050565b600060208201905081810360008301526128c88161288c565b905091905056fea26469706673582212207d6d6725ad311d35649d833c1433a5103ba3a71264eccbd9b86382c2f0ad222e64736f6c63430008130033",
  "devdoc": {
    "events": {
      "RoleAdminChanged(bytes32,bytes32,bytes32)": {
        "details": "Emitted when `newAdminRole` is set as ``role``'s admin role, replacing `previousAdminRole` `DEFAULT_ADMIN_ROLE` is the starting admin for all roles, despite {RoleAdminChanged} not being emitted signaling this. _Available since v3.1._"
      },
      "RoleGranted(bytes32,address,address)": {
        "details": "Emitted when `account` is granted `role`. `sender` is the account that originated the contract call, an admin role bearer except when using {AccessControl-_setupRole}."
      },
      "RoleRevoked(bytes32,address,address)": {
        "details": "Emitted when `account` is revoked `role`. `sender` is the account that originated the contract call:   - if using `revokeRole`, it is the admin role bearer   - if using `renounceRole`, it is the role bearer (i.e. `account`)"
      }
    },
    "kind": "dev",
    "methods": {
      "getRoleAdmin(bytes32)": {
        "details": "Returns the admin role that controls `role`. See {grantRole} and {revokeRole}. To change a role's admin, use {_setRoleAdmin}."
      },
      "grantRole(bytes32,address)": {
        "details": "Grants `role` to `account`. If `account` had not been already granted `role`, emits a {RoleGranted} event. Requirements: - the caller must have ``role``'s admin role. May emit a {RoleGranted} event."
      },
      "hasRole(bytes32,address)": {
        "details": "Returns `true` if `account` has been granted `role`."
      },
      "renounceRole(bytes32,address)": {
        "details": "Revokes `role` from the calling account. Roles are often managed via {grantRole} and {revokeRole}: this function's purpose is to provide a mechanism for accounts to lose their privileges if they are compromised (such as when a trusted device is misplaced). If the calling account had been revoked `role`, emits a {RoleRevoked} event. Requirements: - the caller must be `account`. May emit a {RoleRevoked} event."
      },
      "revokeRole(bytes32,address)": {
        "details": "Revokes `role` from `account`. If `account` had been granted `role`, emits a {RoleRevoked} event. Requirements: - the caller must have ``role``'s admin role. May emit a {RoleRevoked} event."
      },
      "supportsInterface(bytes4)": {
        "details": "See {IERC165-supportsInterface}."
      }
    },
    "version": 1
  },
  "userdoc": {
    "kind": "user",
    "methods": {},
    "version": 1
  },
  "storageLayout": {
    "storage": [
      {
        "astId": 24,
        "contract": "contracts/DelegateRegistry.sol:DelegateRegistry",
        "label": "_roles",
        "offset": 0,
        "slot": "0",
        "type": "t_mapping(t_bytes32,t_struct(RoleData)19_storage)"
      },
      {
        "astId": 2022,
        "contract": "contracts/DelegateRegistry.sol:DelegateRegistry",
        "label": "delegates",
        "offset": 0,
        "slot": "1",
        "type": "t_mapping(t_address,t_mapping(t_address,t_mapping(t_uint256,t_uint8)))"
      },
      {
        "astId": 2026,
        "contract": "contracts/DelegateRegistry.sol:DelegateRegistry",
        "label": "nonces",
        "offset": 0,
        "slot": "2",
        "type": "t_mapping(t_address,t_uint256)"
      },
      {
        "astId": 2028,
        "contract": "contracts/DelegateRegistry.sol:DelegateRegistry",
        "label": "expiryDateForRegistryBackfill",
        "offset": 0,
        "slot": "3",
        "type": "t_uint256"
      }
    ],
    "types": {
      "t_address": {
        "encoding": "inplace",
        "label": "address",
        "numberOfBytes": "20"
      },
      "t_bool": {
        "encoding": "inplace",
        "label": "bool",
        "numberOfBytes": "1"
      },
      "t_bytes32": {
        "encoding": "inplace",
        "label": "bytes32",
        "numberOfBytes": "32"
      },
      "t_mapping(t_address,t_bool)": {
        "encoding": "mapping",
        "key": "t_address",
        "label": "mapping(address => bool)",
        "numberOfBytes": "32",
        "value": "t_bool"
      },
      "t_mapping(t_address,t_mapping(t_address,t_mapping(t_uint256,t_uint8)))": {
        "encoding": "mapping",
        "key": "t_address",
        "label": "mapping(address => mapping(address => mapping(uint256 => uint8)))",
        "numberOfBytes": "32",
        "value": "t_mapping(t_address,t_mapping(t_uint256,t_uint8))"
      },
      "t_mapping(t_address,t_mapping(t_uint256,t_uint8))": {
        "encoding": "mapping",
        "key": "t_address",
        "label": "mapping(address => mapping(uint256 => uint8))",
        "numberOfBytes": "32",
        "value": "t_mapping(t_uint256,t_uint8)"
      },
      "t_mapping(t_address,t_uint256)": {
        "encoding": "mapping",
        "key": "t_address",
        "label": "mapping(address => uint256)",
        "numberOfBytes": "32",
        "value": "t_uint256"
      },
      "t_mapping(t_bytes32,t_struct(RoleData)19_storage)": {
        "encoding": "mapping",
        "key": "t_bytes32",
        "label": "mapping(bytes32 => struct AccessControl.RoleData)",
        "numberOfBytes": "32",
        "value": "t_struct(RoleData)19_storage"
      },
      "t_mapping(t_uint256,t_uint8)": {
        "encoding": "mapping",
        "key": "t_uint256",
        "label": "mapping(uint256 => uint8)",
        "numberOfBytes": "32",
        "value": "t_uint8"
      },
      "t_struct(RoleData)19_storage": {
        "encoding": "inplace",
        "label": "struct AccessControl.RoleData",
        "members": [
          {
            "astId": 16,
            "contract": "contracts/DelegateRegistry.sol:DelegateRegistry",
            "label": "members",
            "offset": 0,
            "slot": "0",
            "type": "t_mapping(t_address,t_bool)"
          },
          {
            "astId": 18,
            "contract": "contracts/DelegateRegistry.sol:DelegateRegistry",
            "label": "adminRole",
            "offset": 0,
            "slot": "1",
            "type": "t_bytes32"
          }
        ],
        "numberOfBytes": "64"
      },
      "t_uint256": {
        "encoding": "inplace",
        "label": "uint256",
        "numberOfBytes": "32"
      },
      "t_uint8": {
        "encoding": "inplace",
        "label": "uint8",
        "numberOfBytes": "1"
      }
    }
  }
}