{
  "address": "0x3a53ba5A80a879650363a4A89759C2224386B8d1",
  "abi": [
    {
      "inputs": [
        {
          "internalType": "address",
          "name": "admin",
          "type": "address"
        }
      ],
      "stateMutability": "nonpayable",
      "type": "constructor"
    },
    {
      "anonymous": false,
      "inputs": [
        {
          "indexed": true,
          "internalType": "address",
          "name": "delegateAddress",
          "type": "address"
        },
        {
          "indexed": true,
          "internalType": "address",
          "name": "tokenAddress",
          "type": "address"
        },
        {
          "indexed": false,
          "internalType": "uint256",
          "name": "tokenChainId",
          "type": "uint256"
        },
        {
          "indexed": false,
          "internalType": "string",
          "name": "metadata",
          "type": "string"
        }
      ],
      "name": "DelegateAdded",
      "type": "event"
    },
    {
      "anonymous": false,
      "inputs": [
        {
          "indexed": true,
          "internalType": "address",
          "name": "delegateAddress",
          "type": "address"
        },
        {
          "indexed": true,
          "internalType": "address",
          "name": "tokenAddress",
          "type": "address"
        },
        {
          "indexed": false,
          "internalType": "uint256",
          "name": "tokenChainId",
          "type": "uint256"
        }
      ],
      "name": "DelegateRemoved",
      "type": "event"
    },
    {
      "anonymous": false,
      "inputs": [
        {
          "indexed": true,
          "internalType": "bytes32",
          "name": "role",
          "type": "bytes32"
        },
        {
          "indexed": true,
          "internalType": "bytes32",
          "name": "previousAdminRole",
          "type": "bytes32"
        },
        {
          "indexed": true,
          "internalType": "bytes32",
          "name": "newAdminRole",
          "type": "bytes32"
        }
      ],
      "name": "RoleAdminChanged",
      "type": "event"
    },
    {
      "anonymous": false,
      "inputs": [
        {
          "indexed": true,
          "internalType": "bytes32",
          "name": "role",
          "type": "bytes32"
        },
        {
          "indexed": true,
          "internalType": "address",
          "name": "account",
          "type": "address"
        },
        {
          "indexed": true,
          "internalType": "address",
          "name": "sender",
          "type": "address"
        }
      ],
      "name": "RoleGranted",
      "type": "event"
    },
    {
      "anonymous": false,
      "inputs": [
        {
          "indexed": true,
          "internalType": "bytes32",
          "name": "role",
          "type": "bytes32"
        },
        {
          "indexed": true,
          "internalType": "address",
          "name": "account",
          "type": "address"
        },
        {
          "indexed": true,
          "internalType": "address",
          "name": "sender",
          "type": "address"
        }
      ],
      "name": "RoleRevoked",
      "type": "event"
    },
    {
      "inputs": [],
      "name": "DEFAULT_ADMIN_ROLE",
      "outputs": [
        {
          "internalType": "bytes32",
          "name": "",
          "type": "bytes32"
        }
      ],
      "stateMutability": "view",
      "type": "function"
    },
    {
      "inputs": [],
      "name": "DEREGISTER_TYPEHASH",
      "outputs": [
        {
          "internalType": "bytes32",
          "name": "",
          "type": "bytes32"
        }
      ],
      "stateMutability": "view",
      "type": "function"
    },
    {
      "inputs": [],
      "name": "PROVIDER_ROLE",
      "outputs": [
        {
          "internalType": "bytes32",
          "name": "",
          "type": "bytes32"
        }
      ],
      "stateMutability": "view",
      "type": "function"
    },
    {
      "inputs": [],
      "name": "REGISTER_TYPEHASH",
      "outputs": [
        {
          "internalType": "bytes32",
          "name": "",
          "type": "bytes32"
        }
      ],
      "stateMutability": "view",
      "type": "function"
    },
    {
      "inputs": [
        {
          "internalType": "address",
          "name": "",
          "type": "address"
        },
        {
          "internalType": "address",
          "name": "",
          "type": "address"
        },
        {
          "internalType": "uint256",
          "name": "",
          "type": "uint256"
        }
      ],
      "name": "delegates",
      "outputs": [
        {
          "internalType": "uint8",
          "name": "",
          "type": "uint8"
        }
      ],
      "stateMutability": "view",
      "type": "function"
    },
    {
      "inputs": [
        {
          "internalType": "address",
          "name": "tokenAddress",
          "type": "address"
        },
        {
          "internalType": "uint256",
          "name": "tokenChainId",
          "type": "uint256"
        }
      ],
      "name": "deregisterDelegate",
      "outputs": [],
      "stateMutability": "nonpayable",
      "type": "function"
    },
    {
      "inputs": [
        {
          "internalType": "address",
          "name": "tokenAddress",
          "type": "address"
        },
        {
          "internalType": "uint256",
          "name": "tokenChainId",
          "type": "uint256"
        },
        {
          "internalType": "uint256",
          "name": "nonce",
          "type": "uint256"
        },
        {
          "internalType": "uint256",
          "name": "expiry",
          "type": "uint256"
        },
        {
          "internalType": "uint8",
          "name": "v",
          "type": "uint8"
        },
        {
          "internalType": "bytes32",
          "name": "r",
          "type": "bytes32"
        },
        {
          "internalType": "bytes32",
          "name": "s",
          "type": "bytes32"
        }
      ],
      "name": "deregisterDelegateBySig",
      "outputs": [],
      "stateMutability": "nonpayable",
      "type": "function"
    },
    {
      "inputs": [],
      "name": "expiryDateForRegistryBackfill",
      "outputs": [
        {
          "internalType": "uint256",
          "name": "",
          "type": "uint256"
        }
      ],
      "stateMutability": "view",
      "type": "function"
    },
    {
      "inputs": [
        {
          "internalType": "bytes32",
          "name": "role",
          "type": "bytes32"
        }
      ],
      "name": "getRoleAdmin",
      "outputs": [
        {
          "internalType": "bytes32",
          "name": "",
          "type": "bytes32"
        }
      ],
      "stateMutability": "view",
      "type": "function"
    },
    {
      "inputs": [
        {
          "internalType": "bytes32",
          "name": "role",
          "type": "bytes32"
        },
        {
          "internalType": "address",
          "name": "account",
          "type": "address"
        }
      ],
      "name": "grantRole",
      "outputs": [],
      "stateMutability": "nonpayable",
      "type": "function"
    },
    {
      "inputs": [
        {
          "internalType": "bytes32",
          "name": "role",
          "type": "bytes32"
        },
        {
          "internalType": "address",
          "name": "account",
          "type": "address"
        }
      ],
      "name": "hasRole",
      "outputs": [
        {
          "internalType": "bool",
          "name": "",
          "type": "bool"
        }
      ],
      "stateMutability": "view",
      "type": "function"
    },
    {
      "inputs": [
        {
          "internalType": "address",
          "name": "delegateAddress",
          "type": "address"
        },
        {
          "internalType": "address",
          "name": "tokenAddress",
          "type": "address"
        },
        {
          "internalType": "uint256",
          "name": "tokenChainId",
          "type": "uint256"
        }
      ],
      "name": "isDelegateRegistered",
      "outputs": [
        {
          "internalType": "uint8",
          "name": "isRegistered",
          "type": "uint8"
        }
      ],
      "stateMutability": "view",
      "type": "function"
    },
    {
      "inputs": [
        {
          "internalType": "address",
          "name": "",
          "type": "address"
        }
      ],
      "name": "nonces",
      "outputs": [
        {
          "internalType": "uint256",
          "name": "",
          "type": "uint256"
        }
      ],
      "stateMutability": "view",
      "type": "function"
    },
    {
      "inputs": [
        {
          "internalType": "address",
          "name": "tokenAddress",
          "type": "address"
        },
        {
          "internalType": "uint256",
          "name": "tokenChainId",
          "type": "uint256"
        },
        {
          "internalType": "string",
          "name": "metadata",
          "type": "string"
        }
      ],
      "name": "registerDelegate",
      "outputs": [],
      "stateMutability": "payable",
      "type": "function"
    },
    {
      "inputs": [
        {
          "internalType": "address",
          "name": "delegateAddress",
          "type": "address"
        },
        {
          "internalType": "address",
          "name": "tokenAddress",
          "type": "address"
        },
        {
          "internalType": "uint256",
          "name": "tokenChainId",
          "type": "uint256"
        },
        {
          "internalType": "string",
          "name": "metadata",
          "type": "string"
        },
        {
          "internalType": "uint256",
          "name": "nonce",
          "type": "uint256"
        },
        {
          "internalType": "uint256",
          "name": "expiry",
          "type": "uint256"
        },
        {
          "internalType": "uint8",
          "name": "v",
          "type": "uint8"
        },
        {
          "internalType": "bytes32",
          "name": "r",
          "type": "bytes32"
        },
        {
          "internalType": "bytes32",
          "name": "s",
          "type": "bytes32"
        }
      ],
      "name": "registerDelegateBySig",
      "outputs": [],
      "stateMutability": "payable",
      "type": "function"
    },
    {
      "inputs": [],
      "name": "registrationFeeAmount",
      "outputs": [
        {
          "internalType": "uint256",
          "name": "",
          "type": "uint256"
        }
      ],
      "stateMutability": "view",
      "type": "function"
    },
    {
      "inputs": [
        {
          "internalType": "bytes32",
          "name": "role",
          "type": "bytes32"
        },
        {
          "internalType": "address",
          "name": "account",
          "type": "address"
        }
      ],
      "name": "renounceRole",
      "outputs": [],
      "stateMutability": "nonpayable",
      "type": "function"
    },
    {
      "inputs": [
        {
          "internalType": "bytes32",
          "name": "role",
          "type": "bytes32"
        },
        {
          "internalType": "address",
          "name": "account",
          "type": "address"
        }
      ],
      "name": "revokeRole",
      "outputs": [],
      "stateMutability": "nonpayable",
      "type": "function"
    },
    {
      "inputs": [
        {
          "internalType": "uint256",
          "name": "expiry",
          "type": "uint256"
        }
      ],
      "name": "setExpiryDateForRegistryBackfill",
      "outputs": [],
      "stateMutability": "nonpayable",
      "type": "function"
    },
    {
      "inputs": [
        {
          "internalType": "uint256",
          "name": "_registrationFeeAmount",
          "type": "uint256"
        }
      ],
      "name": "setRegistrationFee",
      "outputs": [],
      "stateMutability": "nonpayable",
      "type": "function"
    },
    {
      "inputs": [
        {
          "internalType": "bytes4",
          "name": "interfaceId",
          "type": "bytes4"
        }
      ],
      "name": "supportsInterface",
      "outputs": [
        {
          "internalType": "bool",
          "name": "",
          "type": "bool"
        }
      ],
      "stateMutability": "view",
      "type": "function"
    },
    {
      "inputs": [
        {
          "internalType": "address",
          "name": "delegateAddress",
          "type": "address"
        },
        {
          "internalType": "address",
          "name": "tokenAddress",
          "type": "address"
        },
        {
          "internalType": "uint256",
          "name": "tokenChainId",
          "type": "uint256"
        },
        {
          "internalType": "string",
          "name": "metadata",
          "type": "string"
        }
      ],
      "name": "uploadDelegate",
      "outputs": [],
      "stateMutability": "payable",
      "type": "function"
    }
  ],
  "transactionHash": "0x4c93c95aa9a12a6bc73c043d8ca215dc502074e206f47b15c1f385b0b257321e",
  "args": [
    "0xf768f5F340e89698465Fc7C12F31cB485fFf98D2"
  ],
  "numDeployments": 1,
  "solcInputHash": "9540061fda09cf15f3df089204260c61",
  "bytecode": "0x6101406040523480156200001257600080fd5b50604051620035f6380380620035f683398181016040528101906200003891906200037b565b6040518060400160405280601181526020017f64656c65676174652d72656769737472790000000000000000000000000000008152506040518060400160405280600381526020017f312e30000000000000000000000000000000000000000000000000000000000081525060008280519060200120905060008280519060200120905060007f8b73c3c69bb8fe3d512ecc4cf759cc79239f7b179b0ffacaa9a75d522b39400f90508260e081815250508161010081815250504660a081815250506200010d8184846200017260201b60201c565b608081815250503073ffffffffffffffffffffffffffffffffffffffff1660c08173ffffffffffffffffffffffffffffffffffffffff168152505080610120818152505050505050506200016b6000801b82620001ae60201b60201c565b5062000451565b600083838346306040516020016200018f959493929190620003f4565b6040516020818303038152906040528051906020012090509392505050565b620001c082826200029f60201b60201c565b6200029b57600160008084815260200190815260200160002060000160008373ffffffffffffffffffffffffffffffffffffffff1673ffffffffffffffffffffffffffffffffffffffff16815260200190815260200160002060006101000a81548160ff021916908315150217905550620002406200030960201b60201c565b73ffffffffffffffffffffffffffffffffffffffff168173ffffffffffffffffffffffffffffffffffffffff16837f2f8788117e7eff1d82e926ec794901d17c78024a50270940304540a733656f0d60405160405180910390a45b5050565b600080600084815260200190815260200160002060000160008373ffffffffffffffffffffffffffffffffffffffff1673ffffffffffffffffffffffffffffffffffffffff16815260200190815260200160002060009054906101000a900460ff16905092915050565b600033905090565b600080fd5b600073ffffffffffffffffffffffffffffffffffffffff82169050919050565b6000620003438262000316565b9050919050565b620003558162000336565b81146200036157600080fd5b50565b60008151905062000375816200034a565b92915050565b60006020828403121562000394576200039362000311565b5b6000620003a48482850162000364565b91505092915050565b6000819050919050565b620003c281620003ad565b82525050565b6000819050919050565b620003dd81620003c8565b82525050565b620003ee8162000336565b82525050565b600060a0820190506200040b6000830188620003b7565b6200041a6020830187620003b7565b620004296040830186620003b7565b620004386060830185620003d2565b620004476080830184620003e3565b9695505050505050565b60805160a05160c05160e0516101005161012051613155620004a160003960006115580152600061159a01526000611579015260006114ae015260006115040152600061152d01526131556000f3fe6080604052600436106101355760003560e01c80636a5306a3116100ab57806391d148541161006f57806391d148541461041e578063984004661461045b578063a217fddf14610477578063b7967cf3146104a2578063c320c727146104cb578063d547741f146104f457610135565b80636a5306a314610341578063733ed1c91461036c578063779de8b5146103885780637ecebe00146103a4578063867a1c34146103e157610135565b8063248a9ca3116100fd578063248a9ca31461023157806324c20a341461026e5780632f2ff15d1461029957806336568abe146102c2578063545c022a146102eb5780635d47d7791461031657610135565b806301ffc9a71461013a5780631a6a0ce2146101775780631a7f61a5146101a25780631bdec852146101cb578063228ce014146101f4575b600080fd5b34801561014657600080fd5b50610161600480360381019061015c9190611bd3565b61051d565b60405161016e9190611c1b565b60405180910390f35b34801561018357600080fd5b5061018c610597565b6040516101999190611c4f565b60405180910390f35b3480156101ae57600080fd5b506101c960048036038101906101c49190611d63565b61059d565b005b3480156101d757600080fd5b506101f260048036038101906101ed9190611e05565b610748565b005b34801561020057600080fd5b5061021b60048036038101906102169190611e45565b6107af565b6040516102289190611ea7565b60405180910390f35b34801561023d57600080fd5b5061025860048036038101906102539190611ec2565b610855565b6040516102659190611efe565b60405180910390f35b34801561027a57600080fd5b50610283610874565b6040516102909190611efe565b60405180910390f35b3480156102a557600080fd5b506102c060048036038101906102bb9190611f19565b610898565b005b3480156102ce57600080fd5b506102e960048036038101906102e49190611f19565b6108b9565b005b3480156102f757600080fd5b5061030061093c565b60405161030d9190611c4f565b60405180910390f35b34801561032257600080fd5b5061032b610942565b6040516103389190611efe565b60405180910390f35b34801561034d57600080fd5b50610356610966565b6040516103639190611efe565b60405180910390f35b6103866004803603810190610381919061209f565b61098a565b005b6103a2600480360381019061039d919061210e565b6109a3565b005b3480156103b057600080fd5b506103cb60048036038101906103c69190612191565b610a2d565b6040516103d89190611c4f565b60405180910390f35b3480156103ed57600080fd5b5061040860048036038101906104039190611e45565b610a45565b6040516104159190611ea7565b60405180910390f35b34801561042a57600080fd5b5061044560048036038101906104409190611f19565b610a81565b6040516104529190611c1b565b60405180910390f35b610475600480360381019061047091906121be565b610aeb565b005b34801561048357600080fd5b5061048c610cc0565b6040516104999190611efe565b60405180910390f35b3480156104ae57600080fd5b506104c960048036038101906104c491906122a4565b610cc7565b005b3480156104d757600080fd5b506104f260048036038101906104ed91906122a4565b610cdf565b005b34801561050057600080fd5b5061051b60048036038101906105169190611f19565b610cf7565b005b60007f7965db0b000000000000000000000000000000000000000000000000000000007bffffffffffffffffffffffffffffffffffffffffffffffffffffffff1916827bffffffffffffffffffffffffffffffffffffffffffffffffffffffff19161480610590575061058f82610d18565b5b9050919050565b60045481565b834211156105e0576040517f08c379a00000000000000000000000000000000000000000000000000000000081526004016105d790612354565b60405180910390fd5b600061064461063c7fb49ef440e034b80c5563a6367f2ed85be6cd5ed142b9818159faf97273dc6aa68a8a8a8a604051602001610621959493929190612383565b60405160208183030381529060405280519060200120610d82565b858585610d9c565b9050600260008273ffffffffffffffffffffffffffffffffffffffff1673ffffffffffffffffffffffffffffffffffffffff168152602001908152602001600020600081548092919061069690612405565b9190505586146106db576040517f08c379a00000000000000000000000000000000000000000000000000000000081526004016106d2906124bf565b60405180910390fd5b60016106e8828a8a6107af565b60ff161461072b576040517f08c379a00000000000000000000000000000000000000000000000000000000081526004016107229061252b565b60405180910390fd5b610736818989610dc7565b61073e610fb8565b5050505050505050565b60016107553384846107af565b60ff1614610798576040517f08c379a000000000000000000000000000000000000000000000000000000000815260040161078f9061252b565b60405180910390fd5b6107a3338383610dc7565b6107ab610fb8565b5050565b6000600160008573ffffffffffffffffffffffffffffffffffffffff1673ffffffffffffffffffffffffffffffffffffffff16815260200190815260200160002060008473ffffffffffffffffffffffffffffffffffffffff1673ffffffffffffffffffffffffffffffffffffffff168152602001908152602001600020600083815260200190815260200160002060009054906101000a900460ff1690509392505050565b6000806000838152602001908152602001600020600101549050919050565b7f18d9ff454de989bd126b06bd404b47ede75f9e65543e94e8d212f89d7dcbb87c81565b6108a182610855565b6108aa816110ae565b6108b483836110c2565b505050565b6108c16111a2565b73ffffffffffffffffffffffffffffffffffffffff168173ffffffffffffffffffffffffffffffffffffffff161461092e576040517f08c379a0000000000000000000000000000000000000000000000000000000008152600401610925906125bd565b60405180910390fd5b61093882826111aa565b5050565b60035481565b7fb49ef440e034b80c5563a6367f2ed85be6cd5ed142b9818159faf97273dc6aa681565b7f62f336915c19779a574ca5ec6e327da56f347d8e548daf06f207c3d4d381c81481565b61099261128b565b61099e33848484611397565b505050565b7f18d9ff454de989bd126b06bd404b47ede75f9e65543e94e8d212f89d7dcbb87c6109cd816110ae565b600354421115610a12576040517f08c379a0000000000000000000000000000000000000000000000000000000008152600401610a099061264f565b60405180910390fd5b610a1a61128b565b610a2685858585611397565b5050505050565b60026020528060005260406000206000915090505481565b6001602052826000526040600020602052816000526040600020602052806000526040600020600092509250509054906101000a900460ff1681565b600080600084815260200190815260200160002060000160008373ffffffffffffffffffffffffffffffffffffffff1673ffffffffffffffffffffffffffffffffffffffff16815260200190815260200160002060009054906101000a900460ff16905092915050565b83421115610b2e576040517f08c379a0000000000000000000000000000000000000000000000000000000008152600401610b25906126e1565b60405180910390fd5b610b3661128b565b6000610ba3610b9b7f62f336915c19779a574ca5ec6e327da56f347d8e548daf06f207c3d4d381c8148b8b8b805190602001208b8b604051602001610b8096959493929190612701565b60405160208183030381529060405280519060200120610d82565b858585610d9c565b90508073ffffffffffffffffffffffffffffffffffffffff168a73ffffffffffffffffffffffffffffffffffffffff1614610c13576040517f08c379a0000000000000000000000000000000000000000000000000000000008152600401610c0a906127d4565b60405180910390fd5b600260008273ffffffffffffffffffffffffffffffffffffffff1673ffffffffffffffffffffffffffffffffffffffff1681526020019081526020016000206000815480929190610c6390612405565b919050558614610ca8576040517f08c379a0000000000000000000000000000000000000000000000000000000008152600401610c9f90612840565b60405180910390fd5b610cb4818a8a8a611397565b50505050505050505050565b6000801b81565b6000801b610cd4816110ae565b816003819055505050565b6000801b610cec816110ae565b816004819055505050565b610d0082610855565b610d09816110ae565b610d1383836111aa565b505050565b60007f01ffc9a7000000000000000000000000000000000000000000000000000000007bffffffffffffffffffffffffffffffffffffffffffffffffffffffff1916827bffffffffffffffffffffffffffffffffffffffffffffffffffffffff1916149050919050565b6000610d95610d8f6114aa565b836115c4565b9050919050565b6000806000610dad878787876115f7565b91509150610dba816116d9565b8192505050949350505050565b6000600160008573ffffffffffffffffffffffffffffffffffffffff1673ffffffffffffffffffffffffffffffffffffffff16815260200190815260200160002060008473ffffffffffffffffffffffffffffffffffffffff1673ffffffffffffffffffffffffffffffffffffffff168152602001908152602001600020600083815260200190815260200160002060009054906101000a900460ff1660ff1603610ea7576040517f08c379a0000000000000000000000000000000000000000000000000000000008152600401610e9e906128d2565b60405180910390fd5b6000600160008573ffffffffffffffffffffffffffffffffffffffff1673ffffffffffffffffffffffffffffffffffffffff16815260200190815260200160002060008473ffffffffffffffffffffffffffffffffffffffff1673ffffffffffffffffffffffffffffffffffffffff168152602001908152602001600020600083815260200190815260200160002060006101000a81548160ff021916908360ff1602179055508173ffffffffffffffffffffffffffffffffffffffff168373ffffffffffffffffffffffffffffffffffffffff167fec7796ac22cd691744830d7a8a9a7d21752be77e84ebc1ee5dca0ae6e47d9da383604051610fab9190611c4f565b60405180910390a3505050565b600454471015610ffd576040517f08c379a0000000000000000000000000000000000000000000000000000000008152600401610ff49061293e565b60405180910390fd5b60003373ffffffffffffffffffffffffffffffffffffffff166004546040516110259061298f565b60006040518083038185875af1925050503d8060008114611062576040519150601f19603f3d011682016040523d82523d6000602084013e611067565b606091505b50509050806110ab576040517f08c379a00000000000000000000000000000000000000000000000000000000081526004016110a2906129f0565b60405180910390fd5b50565b6110bf816110ba6111a2565b61183f565b50565b6110cc8282610a81565b61119e57600160008084815260200190815260200160002060000160008373ffffffffffffffffffffffffffffffffffffffff1673ffffffffffffffffffffffffffffffffffffffff16815260200190815260200160002060006101000a81548160ff0219169083151502179055506111436111a2565b73ffffffffffffffffffffffffffffffffffffffff168173ffffffffffffffffffffffffffffffffffffffff16837f2f8788117e7eff1d82e926ec794901d17c78024a50270940304540a733656f0d60405160405180910390a45b5050565b600033905090565b6111b48282610a81565b1561128757600080600084815260200190815260200160002060000160008373ffffffffffffffffffffffffffffffffffffffff1673ffffffffffffffffffffffffffffffffffffffff16815260200190815260200160002060006101000a81548160ff02191690831515021790555061122c6111a2565b73ffffffffffffffffffffffffffffffffffffffff168173ffffffffffffffffffffffffffffffffffffffff16837ff6391f5c32d9c69d2a47ea670b442974b53935d1edc7fd64eb21e047a839171b60405160405180910390a45b5050565b6004543410156112d0576040517f08c379a00000000000000000000000000000000000000000000000000000000081526004016112c790612a82565b60405180910390fd5b6004543411156113955760003373ffffffffffffffffffffffffffffffffffffffff16600454346113019190612aa2565b60405161130d9061298f565b60006040518083038185875af1925050503d806000811461134a576040519150601f19603f3d011682016040523d82523d6000602084013e61134f565b606091505b5050905080611393576040517f08c379a000000000000000000000000000000000000000000000000000000000815260040161138a90612b22565b60405180910390fd5b505b565b60018060008673ffffffffffffffffffffffffffffffffffffffff1673ffffffffffffffffffffffffffffffffffffffff16815260200190815260200160002060008573ffffffffffffffffffffffffffffffffffffffff1673ffffffffffffffffffffffffffffffffffffffff168152602001908152602001600020600084815260200190815260200160002060006101000a81548160ff021916908360ff1602179055508273ffffffffffffffffffffffffffffffffffffffff168473ffffffffffffffffffffffffffffffffffffffff167ff8062ac22dc3b85838812d1c14968311ef4bda78cf9f74aba563533ad670c417848460405161149c929190612bb0565b60405180910390a350505050565b60007f000000000000000000000000000000000000000000000000000000000000000073ffffffffffffffffffffffffffffffffffffffff163073ffffffffffffffffffffffffffffffffffffffff1614801561152657507f000000000000000000000000000000000000000000000000000000000000000046145b15611553577f000000000000000000000000000000000000000000000000000000000000000090506115c1565b6115be7f00000000000000000000000000000000000000000000000000000000000000007f00000000000000000000000000000000000000000000000000000000000000007f00000000000000000000000000000000000000000000000000000000000000006118c4565b90505b90565b600082826040516020016115d9929190612c58565b60405160208183030381529060405280519060200120905092915050565b6000807f7fffffffffffffffffffffffffffffff5d576e7357a4501ddfe92f46681b20a08360001c11156116325760006003915091506116d0565b6000600187878787604051600081526020016040526040516116579493929190612c8f565b6020604051602081039080840390855afa158015611679573d6000803e3d6000fd5b505050602060405103519050600073ffffffffffffffffffffffffffffffffffffffff168173ffffffffffffffffffffffffffffffffffffffff16036116c7576000600192509250506116d0565b80600092509250505b94509492505050565b600060048111156116ed576116ec612cd4565b5b816004811115611700576116ff612cd4565b5b031561183c576001600481111561171a57611719612cd4565b5b81600481111561172d5761172c612cd4565b5b0361176d576040517f08c379a000000000000000000000000000000000000000000000000000000000815260040161176490612d4f565b60405180910390fd5b6002600481111561178157611780612cd4565b5b81600481111561179457611793612cd4565b5b036117d4576040517f08c379a00000000000000000000000000000000000000000000000000000000081526004016117cb90612dbb565b60405180910390fd5b600360048111156117e8576117e7612cd4565b5b8160048111156117fb576117fa612cd4565b5b0361183b576040517f08c379a000000000000000000000000000000000000000000000000000000000815260040161183290612e4d565b60405180910390fd5b5b50565b6118498282610a81565b6118c057611856816118fe565b6118648360001c602061192b565b604051602001611875929190612f36565b6040516020818303038152906040526040517f08c379a00000000000000000000000000000000000000000000000000000000081526004016118b79190612f70565b60405180910390fd5b5050565b600083838346306040516020016118df959493929190612f92565b6040516020818303038152906040528051906020012090509392505050565b60606119248273ffffffffffffffffffffffffffffffffffffffff16601460ff1661192b565b9050919050565b60606000600283600261193e9190612fe5565b6119489190613027565b67ffffffffffffffff81111561196157611960611f74565b5b6040519080825280601f01601f1916602001820160405280156119935781602001600182028036833780820191505090505b5090507f3000000000000000000000000000000000000000000000000000000000000000816000815181106119cb576119ca61305b565b5b60200101907effffffffffffffffffffffffffffffffffffffffffffffffffffffffffffff1916908160001a9053507f780000000000000000000000000000000000000000000000000000000000000081600181518110611a2f57611a2e61305b565b5b60200101907effffffffffffffffffffffffffffffffffffffffffffffffffffffffffffff1916908160001a90535060006001846002611a6f9190612fe5565b611a799190613027565b90505b6001811115611b19577f3031323334353637383961626364656600000000000000000000000000000000600f861660108110611abb57611aba61305b565b5b1a60f81b828281518110611ad257611ad161305b565b5b60200101907effffffffffffffffffffffffffffffffffffffffffffffffffffffffffffff1916908160001a905350600485901c945080611b129061308a565b9050611a7c565b5060008414611b5d576040517f08c379a0000000000000000000000000000000000000000000000000000000008152600401611b54906130ff565b60405180910390fd5b8091505092915050565b6000604051905090565b600080fd5b600080fd5b60007fffffffff0000000000000000000000000000000000000000000000000000000082169050919050565b611bb081611b7b565b8114611bbb57600080fd5b50565b600081359050611bcd81611ba7565b92915050565b600060208284031215611be957611be8611b71565b5b6000611bf784828501611bbe565b91505092915050565b60008115159050919050565b611c1581611c00565b82525050565b6000602082019050611c306000830184611c0c565b92915050565b6000819050919050565b611c4981611c36565b82525050565b6000602082019050611c646000830184611c40565b92915050565b600073ffffffffffffffffffffffffffffffffffffffff82169050919050565b6000611c9582611c6a565b9050919050565b611ca581611c8a565b8114611cb057600080fd5b50565b600081359050611cc281611c9c565b92915050565b611cd181611c36565b8114611cdc57600080fd5b50565b600081359050611cee81611cc8565b92915050565b600060ff82169050919050565b611d0a81611cf4565b8114611d1557600080fd5b50565b600081359050611d2781611d01565b92915050565b6000819050919050565b611d4081611d2d565b8114611d4b57600080fd5b50565b600081359050611d5d81611d37565b92915050565b600080600080600080600060e0888a031215611d8257611d81611b71565b5b6000611d908a828b01611cb3565b9750506020611da18a828b01611cdf565b9650506040611db28a828b01611cdf565b9550506060611dc38a828b01611cdf565b9450506080611dd48a828b01611d18565b93505060a0611de58a828b01611d4e565b92505060c0611df68a828b01611d4e565b91505092959891949750929550565b60008060408385031215611e1c57611e1b611b71565b5b6000611e2a85828601611cb3565b9250506020611e3b85828601611cdf565b9150509250929050565b600080600060608486031215611e5e57611e5d611b71565b5b6000611e6c86828701611cb3565b9350506020611e7d86828701611cb3565b9250506040611e8e86828701611cdf565b9150509250925092565b611ea181611cf4565b82525050565b6000602082019050611ebc6000830184611e98565b92915050565b600060208284031215611ed857611ed7611b71565b5b6000611ee684828501611d4e565b91505092915050565b611ef881611d2d565b82525050565b6000602082019050611f136000830184611eef565b92915050565b60008060408385031215611f3057611f2f611b71565b5b6000611f3e85828601611d4e565b9250506020611f4f85828601611cb3565b9150509250929050565b600080fd5b600080fd5b6000601f19601f8301169050919050565b7f4e487b7100000000000000000000000000000000000000000000000000000000600052604160045260246000fd5b611fac82611f63565b810181811067ffffffffffffffff82111715611fcb57611fca611f74565b5b80604052505050565b6000611fde611b67565b9050611fea8282611fa3565b919050565b600067ffffffffffffffff82111561200a57612009611f74565b5b61201382611f63565b9050602081019050919050565b82818337600083830152505050565b600061204261203d84611fef565b611fd4565b90508281526020810184848401111561205e5761205d611f5e565b5b612069848285612020565b509392505050565b600082601f83011261208657612085611f59565b5b813561209684826020860161202f565b91505092915050565b6000806000606084860312156120b8576120b7611b71565b5b60006120c686828701611cb3565b93505060206120d786828701611cdf565b925050604084013567ffffffffffffffff8111156120f8576120f7611b76565b5b61210486828701612071565b9150509250925092565b6000806000806080858703121561212857612127611b71565b5b600061213687828801611cb3565b945050602061214787828801611cb3565b935050604061215887828801611cdf565b925050606085013567ffffffffffffffff81111561217957612178611b76565b5b61218587828801612071565b91505092959194509250565b6000602082840312156121a7576121a6611b71565b5b60006121b584828501611cb3565b91505092915050565b60008060008060008060008060006101208a8c0312156121e1576121e0611b71565b5b60006121ef8c828d01611cb3565b99505060206122008c828d01611cb3565b98505060406122118c828d01611cdf565b97505060608a013567ffffffffffffffff81111561223257612231611b76565b5b61223e8c828d01612071565b965050608061224f8c828d01611cdf565b95505060a06122608c828d01611cdf565b94505060c06122718c828d01611d18565b93505060e06122828c828d01611d4e565b9250506101006122948c828d01611d4e565b9150509295985092959850929598565b6000602082840312156122ba576122b9611b71565b5b60006122c884828501611cdf565b91505092915050565b600082825260208201905092915050565b7f4465726567697374657244656c65676174653a207369676e617475726520657860008201527f7069726564000000000000000000000000000000000000000000000000000000602082015250565b600061233e6025836122d1565b9150612349826122e2565b604082019050919050565b6000602082019050818103600083015261236d81612331565b9050919050565b61237d81611c8a565b82525050565b600060a0820190506123986000830188611eef565b6123a56020830187612374565b6123b26040830186611c40565b6123bf6060830185611c40565b6123cc6080830184611c40565b9695505050505050565b7f4e487b7100000000000000000000000000000000000000000000000000000000600052601160045260246000fd5b600061241082611c36565b91507fffffffffffffffffffffffffffffffffffffffffffffffffffffffffffffffff8203612442576124416123d6565b5b600182019050919050565b7f4465726567697374657244656c65676174653a20696e76616c6964206e6f6e6360008201527f6500000000000000000000000000000000000000000000000000000000000000602082015250565b60006124a96021836122d1565b91506124b48261244d565b604082019050919050565b600060208201905081810360008301526124d88161249c565b9050919050565b7f4e6f74206120726567697374657265642064656c656761746500000000000000600082015250565b60006125156019836122d1565b9150612520826124df565b602082019050919050565b6000602082019050818103600083015261254481612508565b9050919050565b7f416363657373436f6e74726f6c3a2063616e206f6e6c792072656e6f756e636560008201527f20726f6c657320666f722073656c660000000000000000000000000000000000602082015250565b60006125a7602f836122d1565b91506125b28261254b565b604082019050919050565b600060208201905081810360008301526125d68161259a565b9050919050565b7f526567697374657244656c65676174653a207265676973747279206261636b6660008201527f696c6c20706572696f6420686173206578706972656400000000000000000000602082015250565b60006126396036836122d1565b9150612644826125dd565b604082019050919050565b600060208201905081810360008301526126688161262c565b9050919050565b7f526567697374657244656c65676174653a207369676e6174757265206578706960008201527f7265640000000000000000000000000000000000000000000000000000000000602082015250565b60006126cb6023836122d1565b91506126d68261266f565b604082019050919050565b600060208201905081810360008301526126fa816126be565b9050919050565b600060c0820190506127166000830189611eef565b6127236020830188612374565b6127306040830187611c40565b61273d6060830186611eef565b61274a6080830185611c40565b61275760a0830184611c40565b979650505050505050565b7f5369676e657220616e642064656c65676174652061646472657373657320646f60008201527f6e2774206d617463680000000000000000000000000000000000000000000000602082015250565b60006127be6029836122d1565b91506127c982612762565b604082019050919050565b600060208201905081810360008301526127ed816127b1565b9050919050565b7f526567697374657244656c65676174653a20696e76616c6964206e6f6e636500600082015250565b600061282a601f836122d1565b9150612835826127f4565b602082019050919050565b600060208201905081810360008301526128598161281d565b9050919050565b7f4465726567697374657244656c65676174653a20416c7265616479206465726560008201527f6769737465726564000000000000000000000000000000000000000000000000602082015250565b60006128bc6028836122d1565b91506128c782612860565b604082019050919050565b600060208201905081810360008301526128eb816128af565b9050919050565b7f496e73756666696369656e742062616c616e636520666f7220726566756e6400600082015250565b6000612928601f836122d1565b9150612933826128f2565b602082019050919050565b600060208201905081810360008301526129578161291b565b9050919050565b600081905092915050565b50565b600061297960008361295e565b915061298482612969565b600082019050919050565b600061299a8261296c565b9150819050919050565b7f526566756e64206661696c656400000000000000000000000000000000000000600082015250565b60006129da600d836122d1565b91506129e5826129a4565b602082019050919050565b60006020820190508181036000830152612a09816129cd565b9050919050565b7f526567697374657244656c65676174653a20696e73756666696369656e74206660008201527f6565000000000000000000000000000000000000000000000000000000000000602082015250565b6000612a6c6022836122d1565b9150612a7782612a10565b604082019050919050565b60006020820190508181036000830152612a9b81612a5f565b9050919050565b6000612aad82611c36565b9150612ab883611c36565b9250828203905081811115612ad057612acf6123d6565b5b92915050565b7f526566756e64206f662065786365737320666565206661696c65640000000000600082015250565b6000612b0c601b836122d1565b9150612b1782612ad6565b602082019050919050565b60006020820190508181036000830152612b3b81612aff565b9050919050565b600081519050919050565b60005b83811015612b6b578082015181840152602081019050612b50565b60008484015250505050565b6000612b8282612b42565b612b8c81856122d1565b9350612b9c818560208601612b4d565b612ba581611f63565b840191505092915050565b6000604082019050612bc56000830185611c40565b8181036020830152612bd78184612b77565b90509392505050565b600081905092915050565b7f1901000000000000000000000000000000000000000000000000000000000000600082015250565b6000612c21600283612be0565b9150612c2c82612beb565b600282019050919050565b6000819050919050565b612c52612c4d82611d2d565b612c37565b82525050565b6000612c6382612c14565b9150612c6f8285612c41565b602082019150612c7f8284612c41565b6020820191508190509392505050565b6000608082019050612ca46000830187611eef565b612cb16020830186611e98565b612cbe6040830185611eef565b612ccb6060830184611eef565b95945050505050565b7f4e487b7100000000000000000000000000000000000000000000000000000000600052602160045260246000fd5b7f45434453413a20696e76616c6964207369676e61747572650000000000000000600082015250565b6000612d396018836122d1565b9150612d4482612d03565b602082019050919050565b60006020820190508181036000830152612d6881612d2c565b9050919050565b7f45434453413a20696e76616c6964207369676e6174757265206c656e67746800600082015250565b6000612da5601f836122d1565b9150612db082612d6f565b602082019050919050565b60006020820190508181036000830152612dd481612d98565b9050919050565b7f45434453413a20696e76616c6964207369676e6174757265202773272076616c60008201527f7565000000000000000000000000000000000000000000000000000000000000602082015250565b6000612e376022836122d1565b9150612e4282612ddb565b604082019050919050565b60006020820190508181036000830152612e6681612e2a565b9050919050565b7f416363657373436f6e74726f6c3a206163636f756e7420000000000000000000600082015250565b6000612ea3601783612be0565b9150612eae82612e6d565b601782019050919050565b6000612ec482612b42565b612ece8185612be0565b9350612ede818560208601612b4d565b80840191505092915050565b7f206973206d697373696e6720726f6c6520000000000000000000000000000000600082015250565b6000612f20601183612be0565b9150612f2b82612eea565b601182019050919050565b6000612f4182612e96565b9150612f4d8285612eb9565b9150612f5882612f13565b9150612f648284612eb9565b91508190509392505050565b60006020820190508181036000830152612f8a8184612b77565b905092915050565b600060a082019050612fa76000830188611eef565b612fb46020830187611eef565b612fc16040830186611eef565b612fce6060830185611c40565b612fdb6080830184612374565b9695505050505050565b6000612ff082611c36565b9150612ffb83611c36565b925082820261300981611c36565b915082820484148315176130205761301f6123d6565b5b5092915050565b600061303282611c36565b915061303d83611c36565b9250828201905080821115613055576130546123d6565b5b92915050565b7f4e487b7100000000000000000000000000000000000000000000000000000000600052603260045260246000fd5b600061309582611c36565b9150600082036130a8576130a76123d6565b5b600182039050919050565b7f537472696e67733a20686578206c656e67746820696e73756666696369656e74600082015250565b60006130e96020836122d1565b91506130f4826130b3565b602082019050919050565b60006020820190508181036000830152613118816130dc565b905091905056fea2646970667358221220e028e149747d32d5588dc1a24d673ff43243999d2ebca49296d7d2b4678fe03164736f6c63430008130033",
  "devdoc": {
    "events": {
      "RoleAdminChanged(bytes32,bytes32,bytes32)": {
        "details": "Emitted when `newAdminRole` is set as ``role``'s admin role, replacing `previousAdminRole` `DEFAULT_ADMIN_ROLE` is the starting admin for all roles, despite {RoleAdminChanged} not being emitted signaling this. _Available since v3.1._"
      },
      "RoleGranted(bytes32,address,address)": {
        "details": "Emitted when `account` is granted `role`. `sender` is the account that originated the contract call, an admin role bearer except when using {AccessControl-_setupRole}."
      },
      "RoleRevoked(bytes32,address,address)": {
        "details": "Emitted when `account` is revoked `role`. `sender` is the account that originated the contract call:   - if using `revokeRole`, it is the admin role bearer   - if using `renounceRole`, it is the role bearer (i.e. `account`)"
      }
    },
    "kind": "dev",
    "methods": {
      "getRoleAdmin(bytes32)": {
        "details": "Returns the admin role that controls `role`. See {grantRole} and {revokeRole}. To change a role's admin, use {_setRoleAdmin}."
      },
      "grantRole(bytes32,address)": {
        "details": "Grants `role` to `account`. If `account` had not been already granted `role`, emits a {RoleGranted} event. Requirements: - the caller must have ``role``'s admin role. May emit a {RoleGranted} event."
      },
      "hasRole(bytes32,address)": {
        "details": "Returns `true` if `account` has been granted `role`."
      },
      "renounceRole(bytes32,address)": {
        "details": "Revokes `role` from the calling account. Roles are often managed via {grantRole} and {revokeRole}: this function's purpose is to provide a mechanism for accounts to lose their privileges if they are compromised (such as when a trusted device is misplaced). If the calling account had been revoked `role`, emits a {RoleRevoked} event. Requirements: - the caller must be `account`. May emit a {RoleRevoked} event."
      },
      "revokeRole(bytes32,address)": {
        "details": "Revokes `role` from `account`. If `account` had been granted `role`, emits a {RoleRevoked} event. Requirements: - the caller must have ``role``'s admin role. May emit a {RoleRevoked} event."
      },
      "supportsInterface(bytes4)": {
        "details": "See {IERC165-supportsInterface}."
      }
    },
    "version": 1
  },
  "userdoc": {
    "kind": "user",
    "methods": {},
    "version": 1
  },
  "storageLayout": {
    "storage": [
      {
        "astId": 24,
        "contract": "contracts/DelegateRegistryPayable.sol:DelegateRegistryPayable",
        "label": "_roles",
        "offset": 0,
        "slot": "0",
        "type": "t_mapping(t_bytes32,t_struct(RoleData)19_storage)"
      },
      {
        "astId": 2022,
        "contract": "contracts/DelegateRegistryPayable.sol:DelegateRegistryPayable",
        "label": "delegates",
        "offset": 0,
        "slot": "1",
        "type": "t_mapping(t_address,t_mapping(t_address,t_mapping(t_uint256,t_uint8)))"
      },
      {
        "astId": 2026,
        "contract": "contracts/DelegateRegistryPayable.sol:DelegateRegistryPayable",
        "label": "nonces",
        "offset": 0,
        "slot": "2",
        "type": "t_mapping(t_address,t_uint256)"
      },
      {
        "astId": 2028,
        "contract": "contracts/DelegateRegistryPayable.sol:DelegateRegistryPayable",
        "label": "expiryDateForRegistryBackfill",
        "offset": 0,
        "slot": "3",
        "type": "t_uint256"
      },
      {
        "astId": 2030,
        "contract": "contracts/DelegateRegistryPayable.sol:DelegateRegistryPayable",
        "label": "registrationFeeAmount",
        "offset": 0,
        "slot": "4",
        "type": "t_uint256"
      }
    ],
    "types": {
      "t_address": {
        "encoding": "inplace",
        "label": "address",
        "numberOfBytes": "20"
      },
      "t_bool": {
        "encoding": "inplace",
        "label": "bool",
        "numberOfBytes": "1"
      },
      "t_bytes32": {
        "encoding": "inplace",
        "label": "bytes32",
        "numberOfBytes": "32"
      },
      "t_mapping(t_address,t_bool)": {
        "encoding": "mapping",
        "key": "t_address",
        "label": "mapping(address => bool)",
        "numberOfBytes": "32",
        "value": "t_bool"
      },
      "t_mapping(t_address,t_mapping(t_address,t_mapping(t_uint256,t_uint8)))": {
        "encoding": "mapping",
        "key": "t_address",
        "label": "mapping(address => mapping(address => mapping(uint256 => uint8)))",
        "numberOfBytes": "32",
        "value": "t_mapping(t_address,t_mapping(t_uint256,t_uint8))"
      },
      "t_mapping(t_address,t_mapping(t_uint256,t_uint8))": {
        "encoding": "mapping",
        "key": "t_address",
        "label": "mapping(address => mapping(uint256 => uint8))",
        "numberOfBytes": "32",
        "value": "t_mapping(t_uint256,t_uint8)"
      },
      "t_mapping(t_address,t_uint256)": {
        "encoding": "mapping",
        "key": "t_address",
        "label": "mapping(address => uint256)",
        "numberOfBytes": "32",
        "value": "t_uint256"
      },
      "t_mapping(t_bytes32,t_struct(RoleData)19_storage)": {
        "encoding": "mapping",
        "key": "t_bytes32",
        "label": "mapping(bytes32 => struct AccessControl.RoleData)",
        "numberOfBytes": "32",
        "value": "t_struct(RoleData)19_storage"
      },
      "t_mapping(t_uint256,t_uint8)": {
        "encoding": "mapping",
        "key": "t_uint256",
        "label": "mapping(uint256 => uint8)",
        "numberOfBytes": "32",
        "value": "t_uint8"
      },
      "t_struct(RoleData)19_storage": {
        "encoding": "inplace",
        "label": "struct AccessControl.RoleData",
        "members": [
          {
            "astId": 16,
            "contract": "contracts/DelegateRegistryPayable.sol:DelegateRegistryPayable",
            "label": "members",
            "offset": 0,
            "slot": "0",
            "type": "t_mapping(t_address,t_bool)"
          },
          {
            "astId": 18,
            "contract": "contracts/DelegateRegistryPayable.sol:DelegateRegistryPayable",
            "label": "adminRole",
            "offset": 0,
            "slot": "1",
            "type": "t_bytes32"
          }
        ],
        "numberOfBytes": "64"
      },
      "t_uint256": {
        "encoding": "inplace",
        "label": "uint256",
        "numberOfBytes": "32"
      },
      "t_uint8": {
        "encoding": "inplace",
        "label": "uint8",
        "numberOfBytes": "1"
      }
    }
  }
}