{
  "address": "0x6dD79EF7bc4F4310485201E3E900292550b60046",
  "abi": [
    {
      "inputs": [
        {
          "internalType": "address",
          "name": "admin",
          "type": "address"
        }
      ],
      "stateMutability": "nonpayable",
      "type": "constructor"
    },
    {
      "anonymous": false,
      "inputs": [
        {
          "indexed": true,
          "internalType": "address",
          "name": "delegateAddress",
          "type": "address"
        },
        {
          "indexed": true,
          "internalType": "address",
          "name": "tokenAddress",
          "type": "address"
        },
        {
          "indexed": false,
          "internalType": "uint256",
          "name": "tokenChainId",
          "type": "uint256"
        },
        {
          "indexed": false,
          "internalType": "string",
          "name": "metadata",
          "type": "string"
        }
      ],
      "name": "DelegateAdded",
      "type": "event"
    },
    {
      "anonymous": false,
      "inputs": [
        {
          "indexed": true,
          "internalType": "address",
          "name": "delegateAddress",
          "type": "address"
        },
        {
          "indexed": true,
          "internalType": "address",
          "name": "tokenAddress",
          "type": "address"
        },
        {
          "indexed": false,
          "internalType": "uint256",
          "name": "tokenChainId",
          "type": "uint256"
        }
      ],
      "name": "DelegateRemoved",
      "type": "event"
    },
    {
      "anonymous": false,
      "inputs": [
        {
          "indexed": true,
          "internalType": "bytes32",
          "name": "role",
          "type": "bytes32"
        },
        {
          "indexed": true,
          "internalType": "bytes32",
          "name": "previousAdminRole",
          "type": "bytes32"
        },
        {
          "indexed": true,
          "internalType": "bytes32",
          "name": "newAdminRole",
          "type": "bytes32"
        }
      ],
      "name": "RoleAdminChanged",
      "type": "event"
    },
    {
      "anonymous": false,
      "inputs": [
        {
          "indexed": true,
          "internalType": "bytes32",
          "name": "role",
          "type": "bytes32"
        },
        {
          "indexed": true,
          "internalType": "address",
          "name": "account",
          "type": "address"
        },
        {
          "indexed": true,
          "internalType": "address",
          "name": "sender",
          "type": "address"
        }
      ],
      "name": "RoleGranted",
      "type": "event"
    },
    {
      "anonymous": false,
      "inputs": [
        {
          "indexed": true,
          "internalType": "bytes32",
          "name": "role",
          "type": "bytes32"
        },
        {
          "indexed": true,
          "internalType": "address",
          "name": "account",
          "type": "address"
        },
        {
          "indexed": true,
          "internalType": "address",
          "name": "sender",
          "type": "address"
        }
      ],
      "name": "RoleRevoked",
      "type": "event"
    },
    {
      "inputs": [],
      "name": "DEFAULT_ADMIN_ROLE",
      "outputs": [
        {
          "internalType": "bytes32",
          "name": "",
          "type": "bytes32"
        }
      ],
      "stateMutability": "view",
      "type": "function"
    },
    {
      "inputs": [],
      "name": "DEREGISTER_TYPEHASH",
      "outputs": [
        {
          "internalType": "bytes32",
          "name": "",
          "type": "bytes32"
        }
      ],
      "stateMutability": "view",
      "type": "function"
    },
    {
      "inputs": [],
      "name": "PROVIDER_ROLE",
      "outputs": [
        {
          "internalType": "bytes32",
          "name": "",
          "type": "bytes32"
        }
      ],
      "stateMutability": "view",
      "type": "function"
    },
    {
      "inputs": [],
      "name": "REGISTER_TYPEHASH",
      "outputs": [
        {
          "internalType": "bytes32",
          "name": "",
          "type": "bytes32"
        }
      ],
      "stateMutability": "view",
      "type": "function"
    },
    {
      "inputs": [
        {
          "internalType": "address",
          "name": "",
          "type": "address"
        },
        {
          "internalType": "address",
          "name": "",
          "type": "address"
        },
        {
          "internalType": "uint256",
          "name": "",
          "type": "uint256"
        }
      ],
      "name": "delegates",
      "outputs": [
        {
          "internalType": "uint8",
          "name": "",
          "type": "uint8"
        }
      ],
      "stateMutability": "view",
      "type": "function"
    },
    {
      "inputs": [
        {
          "internalType": "address",
          "name": "tokenAddress",
          "type": "address"
        },
        {
          "internalType": "uint256",
          "name": "tokenChainId",
          "type": "uint256"
        }
      ],
      "name": "deregisterDelegate",
      "outputs": [],
      "stateMutability": "nonpayable",
      "type": "function"
    },
    {
      "inputs": [
        {
          "internalType": "address",
          "name": "tokenAddress",
          "type": "address"
        },
        {
          "internalType": "uint256",
          "name": "tokenChainId",
          "type": "uint256"
        },
        {
          "internalType": "uint256",
          "name": "nonce",
          "type": "uint256"
        },
        {
          "internalType": "uint256",
          "name": "expiry",
          "type": "uint256"
        },
        {
          "internalType": "uint8",
          "name": "v",
          "type": "uint8"
        },
        {
          "internalType": "bytes32",
          "name": "r",
          "type": "bytes32"
        },
        {
          "internalType": "bytes32",
          "name": "s",
          "type": "bytes32"
        }
      ],
      "name": "deregisterDelegateBySig",
      "outputs": [],
      "stateMutability": "nonpayable",
      "type": "function"
    },
    {
      "inputs": [],
      "name": "expiryDateForRegistryBackfill",
      "outputs": [
        {
          "internalType": "uint256",
          "name": "",
          "type": "uint256"
        }
      ],
      "stateMutability": "view",
      "type": "function"
    },
    {
      "inputs": [
        {
          "internalType": "bytes32",
          "name": "role",
          "type": "bytes32"
        }
      ],
      "name": "getRoleAdmin",
      "outputs": [
        {
          "internalType": "bytes32",
          "name": "",
          "type": "bytes32"
        }
      ],
      "stateMutability": "view",
      "type": "function"
    },
    {
      "inputs": [
        {
          "internalType": "bytes32",
          "name": "role",
          "type": "bytes32"
        },
        {
          "internalType": "address",
          "name": "account",
          "type": "address"
        }
      ],
      "name": "grantRole",
      "outputs": [],
      "stateMutability": "nonpayable",
      "type": "function"
    },
    {
      "inputs": [
        {
          "internalType": "bytes32",
          "name": "role",
          "type": "bytes32"
        },
        {
          "internalType": "address",
          "name": "account",
          "type": "address"
        }
      ],
      "name": "hasRole",
      "outputs": [
        {
          "internalType": "bool",
          "name": "",
          "type": "bool"
        }
      ],
      "stateMutability": "view",
      "type": "function"
    },
    {
      "inputs": [
        {
          "internalType": "address",
          "name": "delegateAddress",
          "type": "address"
        },
        {
          "internalType": "address",
          "name": "tokenAddress",
          "type": "address"
        },
        {
          "internalType": "uint256",
          "name": "tokenChainId",
          "type": "uint256"
        }
      ],
      "name": "isDelegateRegistered",
      "outputs": [
        {
          "internalType": "uint8",
          "name": "isRegistered",
          "type": "uint8"
        }
      ],
      "stateMutability": "view",
      "type": "function"
    },
    {
      "inputs": [
        {
          "internalType": "address",
          "name": "",
          "type": "address"
        }
      ],
      "name": "nonces",
      "outputs": [
        {
          "internalType": "uint256",
          "name": "",
          "type": "uint256"
        }
      ],
      "stateMutability": "view",
      "type": "function"
    },
    {
      "inputs": [
        {
          "internalType": "address",
          "name": "tokenAddress",
          "type": "address"
        },
        {
          "internalType": "uint256",
          "name": "tokenChainId",
          "type": "uint256"
        },
        {
          "internalType": "string",
          "name": "metadata",
          "type": "string"
        }
      ],
      "name": "registerDelegate",
      "outputs": [],
      "stateMutability": "nonpayable",
      "type": "function"
    },
    {
      "inputs": [
        {
          "internalType": "address",
          "name": "tokenAddress",
          "type": "address"
        },
        {
          "internalType": "uint256",
          "name": "tokenChainId",
          "type": "uint256"
        },
        {
          "internalType": "string",
          "name": "metadata",
          "type": "string"
        },
        {
          "internalType": "uint256",
          "name": "nonce",
          "type": "uint256"
        },
        {
          "internalType": "uint256",
          "name": "expiry",
          "type": "uint256"
        },
        {
          "internalType": "uint8",
          "name": "v",
          "type": "uint8"
        },
        {
          "internalType": "bytes32",
          "name": "r",
          "type": "bytes32"
        },
        {
          "internalType": "bytes32",
          "name": "s",
          "type": "bytes32"
        }
      ],
      "name": "registerDelegateBySig",
      "outputs": [],
      "stateMutability": "nonpayable",
      "type": "function"
    },
    {
      "inputs": [
        {
          "internalType": "bytes32",
          "name": "role",
          "type": "bytes32"
        },
        {
          "internalType": "address",
          "name": "account",
          "type": "address"
        }
      ],
      "name": "renounceRole",
      "outputs": [],
      "stateMutability": "nonpayable",
      "type": "function"
    },
    {
      "inputs": [
        {
          "internalType": "bytes32",
          "name": "role",
          "type": "bytes32"
        },
        {
          "internalType": "address",
          "name": "account",
          "type": "address"
        }
      ],
      "name": "revokeRole",
      "outputs": [],
      "stateMutability": "nonpayable",
      "type": "function"
    },
    {
      "inputs": [
        {
          "internalType": "uint256",
          "name": "expiry",
          "type": "uint256"
        }
      ],
      "name": "setExpiryDateForRegistryBackfill",
      "outputs": [],
      "stateMutability": "nonpayable",
      "type": "function"
    },
    {
      "inputs": [
        {
          "internalType": "bytes4",
          "name": "interfaceId",
          "type": "bytes4"
        }
      ],
      "name": "supportsInterface",
      "outputs": [
        {
          "internalType": "bool",
          "name": "",
          "type": "bool"
        }
      ],
      "stateMutability": "view",
      "type": "function"
    },
    {
      "inputs": [
        {
          "internalType": "address",
          "name": "delegateAddress",
          "type": "address"
        },
        {
          "internalType": "address",
          "name": "tokenAddress",
          "type": "address"
        },
        {
          "internalType": "uint256",
          "name": "tokenChainId",
          "type": "uint256"
        },
        {
          "internalType": "string",
          "name": "metadata",
          "type": "string"
        }
      ],
      "name": "uploadDelegate",
      "outputs": [],
      "stateMutability": "nonpayable",
      "type": "function"
    }
  ],
  "transactionHash": "0xb6b353ce0acbd8ad1f62929e0085912472694e390ff01e6dce7820a6a907e569",
  "args": [
    "0xf768f5F340e89698465Fc7C12F31cB485fFf98D2"
  ],
  "numDeployments": 1,
  "solcInputHash": "fdd9e7c7185acbb8dcf933bc9f053614",
  "bytecode": "0x6101406040523480156200001257600080fd5b5060405162002c9138038062002c9183398181016040528101906200003891906200037b565b6040518060400160405280601181526020017f64656c65676174652d72656769737472790000000000000000000000000000008152506040518060400160405280600381526020017f312e30000000000000000000000000000000000000000000000000000000000081525060008280519060200120905060008280519060200120905060007f8b73c3c69bb8fe3d512ecc4cf759cc79239f7b179b0ffacaa9a75d522b39400f90508260e081815250508161010081815250504660a081815250506200010d8184846200017260201b60201c565b608081815250503073ffffffffffffffffffffffffffffffffffffffff1660c08173ffffffffffffffffffffffffffffffffffffffff168152505080610120818152505050505050506200016b6000801b82620001ae60201b60201c565b5062000451565b600083838346306040516020016200018f959493929190620003f4565b6040516020818303038152906040528051906020012090509392505050565b620001c082826200029f60201b60201c565b6200029b57600160008084815260200190815260200160002060000160008373ffffffffffffffffffffffffffffffffffffffff1673ffffffffffffffffffffffffffffffffffffffff16815260200190815260200160002060006101000a81548160ff021916908315150217905550620002406200030960201b60201c565b73ffffffffffffffffffffffffffffffffffffffff168173ffffffffffffffffffffffffffffffffffffffff16837f2f8788117e7eff1d82e926ec794901d17c78024a50270940304540a733656f0d60405160405180910390a45b5050565b600080600084815260200190815260200160002060000160008373ffffffffffffffffffffffffffffffffffffffff1673ffffffffffffffffffffffffffffffffffffffff16815260200190815260200160002060009054906101000a900460ff16905092915050565b600033905090565b600080fd5b600073ffffffffffffffffffffffffffffffffffffffff82169050919050565b6000620003438262000316565b9050919050565b620003558162000336565b81146200036157600080fd5b50565b60008151905062000375816200034a565b92915050565b60006020828403121562000394576200039362000311565b5b6000620003a48482850162000364565b91505092915050565b6000819050919050565b620003c281620003ad565b82525050565b6000819050919050565b620003dd81620003c8565b82525050565b620003ee8162000336565b82525050565b600060a0820190506200040b6000830188620003b7565b6200041a6020830187620003b7565b620004296040830186620003b7565b620004386060830185620003d2565b620004476080830184620003e3565b9695505050505050565b60805160a05160c05160e05161010051610120516127f0620004a16000396000610fe0015260006110220152600061100101526000610f3601526000610f8c01526000610fb501526127f06000f3fe608060405234801561001057600080fd5b506004361061012c5760003560e01c806369372e1e116100ad578063867a1c3411610071578063867a1c341461032d57806391d148541461035d578063a217fddf1461038d578063b7967cf3146103ab578063d547741f146103c75761012c565b806369372e1e1461028b5780636a5306a3146102a7578063733ed1c9146102c5578063779de8b5146102e15780637ecebe00146102fd5761012c565b806324c20a34116100f457806324c20a34146101f95780632f2ff15d1461021757806336568abe14610233578063545c022a1461024f5780635d47d7791461026d5761012c565b806301ffc9a7146101315780631a7f61a5146101615780631bdec8521461017d578063228ce01414610199578063248a9ca3146101c9575b600080fd5b61014b6004803603810190610146919061165b565b6103e3565b60405161015891906116a3565b60405180910390f35b61017b600480360381019061017691906117c1565b61045d565b005b61019760048036038101906101929190611863565b6105b0565b005b6101b360048036038101906101ae91906118a3565b6105bf565b6040516101c09190611905565b60405180910390f35b6101e360048036038101906101de9190611920565b610665565b6040516101f0919061195c565b60405180910390f35b610201610684565b60405161020e919061195c565b60405180910390f35b610231600480360381019061022c9190611977565b6106a8565b005b61024d60048036038101906102489190611977565b6106c9565b005b61025761074c565b60405161026491906119c6565b60405180910390f35b610275610752565b604051610282919061195c565b60405180910390f35b6102a560048036038101906102a09190611b27565b610776565b005b6102af6108cd565b6040516102bc919061195c565b60405180910390f35b6102df60048036038101906102da9190611bf9565b6108f1565b005b6102fb60048036038101906102f69190611c68565b610902565b005b61031760048036038101906103129190611ceb565b610984565b60405161032491906119c6565b60405180910390f35b610347600480360381019061034291906118a3565b61099c565b6040516103549190611905565b60405180910390f35b61037760048036038101906103729190611977565b6109d8565b60405161038491906116a3565b60405180910390f35b610395610a42565b6040516103a2919061195c565b60405180910390f35b6103c560048036038101906103c09190611d18565b610a49565b005b6103e160048036038101906103dc9190611977565b610a61565b005b60007f7965db0b000000000000000000000000000000000000000000000000000000007bffffffffffffffffffffffffffffffffffffffffffffffffffffffff1916827bffffffffffffffffffffffffffffffffffffffffffffffffffffffff19161480610456575061045582610a82565b5b9050919050565b834211156104a0576040517f08c379a000000000000000000000000000000000000000000000000000000000815260040161049790611dc8565b60405180910390fd5b60006105046104fc7fb49ef440e034b80c5563a6367f2ed85be6cd5ed142b9818159faf97273dc6aa68a8a8a8a6040516020016104e1959493929190611df7565b60405160208183030381529060405280519060200120610aec565b858585610b06565b9050600260008273ffffffffffffffffffffffffffffffffffffffff1673ffffffffffffffffffffffffffffffffffffffff168152602001908152602001600020600081548092919061055690611e79565b91905055861461059b576040517f08c379a000000000000000000000000000000000000000000000000000000000815260040161059290611f33565b60405180910390fd5b6105a6818989610b31565b5050505050505050565b6105bb338383610b31565b5050565b6000600160008573ffffffffffffffffffffffffffffffffffffffff1673ffffffffffffffffffffffffffffffffffffffff16815260200190815260200160002060008473ffffffffffffffffffffffffffffffffffffffff1673ffffffffffffffffffffffffffffffffffffffff168152602001908152602001600020600083815260200190815260200160002060009054906101000a900460ff1690509392505050565b6000806000838152602001908152602001600020600101549050919050565b7f18d9ff454de989bd126b06bd404b47ede75f9e65543e94e8d212f89d7dcbb87c81565b6106b182610665565b6106ba81610c42565b6106c48383610c56565b505050565b6106d1610d36565b73ffffffffffffffffffffffffffffffffffffffff168173ffffffffffffffffffffffffffffffffffffffff161461073e576040517f08c379a000000000000000000000000000000000000000000000000000000000815260040161073590611fc5565b60405180910390fd5b6107488282610d3e565b5050565b60035481565b7fb49ef440e034b80c5563a6367f2ed85be6cd5ed142b9818159faf97273dc6aa681565b834211156107b9576040517f08c379a00000000000000000000000000000000000000000000000000000000081526004016107b090612057565b60405180910390fd5b600061081f6108177f62f336915c19779a574ca5ec6e327da56f347d8e548daf06f207c3d4d381c8148b8b8b8b8b6040516020016107fc969594939291906120e5565b60405160208183030381529060405280519060200120610aec565b858585610b06565b9050600260008273ffffffffffffffffffffffffffffffffffffffff1673ffffffffffffffffffffffffffffffffffffffff168152602001908152602001600020600081548092919061087190611e79565b9190505586146108b6576040517f08c379a00000000000000000000000000000000000000000000000000000000081526004016108ad90612199565b60405180910390fd5b6108c2818a8a8a610e1f565b505050505050505050565b7f62f336915c19779a574ca5ec6e327da56f347d8e548daf06f207c3d4d381c81481565b6108fd33848484610e1f565b505050565b7f18d9ff454de989bd126b06bd404b47ede75f9e65543e94e8d212f89d7dcbb87c61092c81610c42565b600354421115610971576040517f08c379a00000000000000000000000000000000000000000000000000000000081526004016109689061222b565b60405180910390fd5b61097d85858585610e1f565b5050505050565b60026020528060005260406000206000915090505481565b6001602052826000526040600020602052816000526040600020602052806000526040600020600092509250509054906101000a900460ff1681565b600080600084815260200190815260200160002060000160008373ffffffffffffffffffffffffffffffffffffffff1673ffffffffffffffffffffffffffffffffffffffff16815260200190815260200160002060009054906101000a900460ff16905092915050565b6000801b81565b6000801b610a5681610c42565b816003819055505050565b610a6a82610665565b610a7381610c42565b610a7d8383610d3e565b505050565b60007f01ffc9a7000000000000000000000000000000000000000000000000000000007bffffffffffffffffffffffffffffffffffffffffffffffffffffffff1916827bffffffffffffffffffffffffffffffffffffffffffffffffffffffff1916149050919050565b6000610aff610af9610f32565b8361104c565b9050919050565b6000806000610b178787878761107f565b91509150610b2481611161565b8192505050949350505050565b6000600160008573ffffffffffffffffffffffffffffffffffffffff1673ffffffffffffffffffffffffffffffffffffffff16815260200190815260200160002060008473ffffffffffffffffffffffffffffffffffffffff1673ffffffffffffffffffffffffffffffffffffffff168152602001908152602001600020600083815260200190815260200160002060006101000a81548160ff021916908360ff1602179055508173ffffffffffffffffffffffffffffffffffffffff168373ffffffffffffffffffffffffffffffffffffffff167fec7796ac22cd691744830d7a8a9a7d21752be77e84ebc1ee5dca0ae6e47d9da383604051610c3591906119c6565b60405180910390a3505050565b610c5381610c4e610d36565b6112c7565b50565b610c6082826109d8565b610d3257600160008084815260200190815260200160002060000160008373ffffffffffffffffffffffffffffffffffffffff1673ffffffffffffffffffffffffffffffffffffffff16815260200190815260200160002060006101000a81548160ff021916908315150217905550610cd7610d36565b73ffffffffffffffffffffffffffffffffffffffff168173ffffffffffffffffffffffffffffffffffffffff16837f2f8788117e7eff1d82e926ec794901d17c78024a50270940304540a733656f0d60405160405180910390a45b5050565b600033905090565b610d4882826109d8565b15610e1b57600080600084815260200190815260200160002060000160008373ffffffffffffffffffffffffffffffffffffffff1673ffffffffffffffffffffffffffffffffffffffff16815260200190815260200160002060006101000a81548160ff021916908315150217905550610dc0610d36565b73ffffffffffffffffffffffffffffffffffffffff168173ffffffffffffffffffffffffffffffffffffffff16837ff6391f5c32d9c69d2a47ea670b442974b53935d1edc7fd64eb21e047a839171b60405160405180910390a45b5050565b60018060008673ffffffffffffffffffffffffffffffffffffffff1673ffffffffffffffffffffffffffffffffffffffff16815260200190815260200160002060008573ffffffffffffffffffffffffffffffffffffffff1673ffffffffffffffffffffffffffffffffffffffff168152602001908152602001600020600084815260200190815260200160002060006101000a81548160ff021916908360ff1602179055508273ffffffffffffffffffffffffffffffffffffffff168473ffffffffffffffffffffffffffffffffffffffff167ff8062ac22dc3b85838812d1c14968311ef4bda78cf9f74aba563533ad670c4178484604051610f2492919061224b565b60405180910390a350505050565b60007f000000000000000000000000000000000000000000000000000000000000000073ffffffffffffffffffffffffffffffffffffffff163073ffffffffffffffffffffffffffffffffffffffff16148015610fae57507f000000000000000000000000000000000000000000000000000000000000000046145b15610fdb577f00000000000000000000000000000000000000000000000000000000000000009050611049565b6110467f00000000000000000000000000000000000000000000000000000000000000007f00000000000000000000000000000000000000000000000000000000000000007f000000000000000000000000000000000000000000000000000000000000000061134c565b90505b90565b600082826040516020016110619291906122f3565b60405160208183030381529060405280519060200120905092915050565b6000807f7fffffffffffffffffffffffffffffff5d576e7357a4501ddfe92f46681b20a08360001c11156110ba576000600391509150611158565b6000600187878787604051600081526020016040526040516110df949392919061232a565b6020604051602081039080840390855afa158015611101573d6000803e3d6000fd5b505050602060405103519050600073ffffffffffffffffffffffffffffffffffffffff168173ffffffffffffffffffffffffffffffffffffffff160361114f57600060019250925050611158565b80600092509250505b94509492505050565b600060048111156111755761117461236f565b5b8160048111156111885761118761236f565b5b03156112c457600160048111156111a2576111a161236f565b5b8160048111156111b5576111b461236f565b5b036111f5576040517f08c379a00000000000000000000000000000000000000000000000000000000081526004016111ec906123ea565b60405180910390fd5b600260048111156112095761120861236f565b5b81600481111561121c5761121b61236f565b5b0361125c576040517f08c379a000000000000000000000000000000000000000000000000000000000815260040161125390612456565b60405180910390fd5b600360048111156112705761126f61236f565b5b8160048111156112835761128261236f565b5b036112c3576040517f08c379a00000000000000000000000000000000000000000000000000000000081526004016112ba906124e8565b60405180910390fd5b5b50565b6112d182826109d8565b611348576112de81611386565b6112ec8360001c60206113b3565b6040516020016112fd9291906125d1565b6040516020818303038152906040526040517f08c379a000000000000000000000000000000000000000000000000000000000815260040161133f919061260b565b60405180910390fd5b5050565b6000838383463060405160200161136795949392919061262d565b6040516020818303038152906040528051906020012090509392505050565b60606113ac8273ffffffffffffffffffffffffffffffffffffffff16601460ff166113b3565b9050919050565b6060600060028360026113c69190612680565b6113d091906126c2565b67ffffffffffffffff8111156113e9576113e86119fc565b5b6040519080825280601f01601f19166020018201604052801561141b5781602001600182028036833780820191505090505b5090507f300000000000000000000000000000000000000000000000000000000000000081600081518110611453576114526126f6565b5b60200101907effffffffffffffffffffffffffffffffffffffffffffffffffffffffffffff1916908160001a9053507f7800000000000000000000000000000000000000000000000000000000000000816001815181106114b7576114b66126f6565b5b60200101907effffffffffffffffffffffffffffffffffffffffffffffffffffffffffffff1916908160001a905350600060018460026114f79190612680565b61150191906126c2565b90505b60018111156115a1577f3031323334353637383961626364656600000000000000000000000000000000600f861660108110611543576115426126f6565b5b1a60f81b82828151811061155a576115596126f6565b5b60200101907effffffffffffffffffffffffffffffffffffffffffffffffffffffffffffff1916908160001a905350600485901c94508061159a90612725565b9050611504565b50600084146115e5576040517f08c379a00000000000000000000000000000000000000000000000000000000081526004016115dc9061279a565b60405180910390fd5b8091505092915050565b6000604051905090565b600080fd5b600080fd5b60007fffffffff0000000000000000000000000000000000000000000000000000000082169050919050565b61163881611603565b811461164357600080fd5b50565b6000813590506116558161162f565b92915050565b600060208284031215611671576116706115f9565b5b600061167f84828501611646565b91505092915050565b60008115159050919050565b61169d81611688565b82525050565b60006020820190506116b86000830184611694565b92915050565b600073ffffffffffffffffffffffffffffffffffffffff82169050919050565b60006116e9826116be565b9050919050565b6116f9816116de565b811461170457600080fd5b50565b600081359050611716816116f0565b92915050565b6000819050919050565b61172f8161171c565b811461173a57600080fd5b50565b60008135905061174c81611726565b92915050565b600060ff82169050919050565b61176881611752565b811461177357600080fd5b50565b6000813590506117858161175f565b92915050565b6000819050919050565b61179e8161178b565b81146117a957600080fd5b50565b6000813590506117bb81611795565b92915050565b600080600080600080600060e0888a0312156117e0576117df6115f9565b5b60006117ee8a828b01611707565b97505060206117ff8a828b0161173d565b96505060406118108a828b0161173d565b95505060606118218a828b0161173d565b94505060806118328a828b01611776565b93505060a06118438a828b016117ac565b92505060c06118548a828b016117ac565b91505092959891949750929550565b6000806040838503121561187a576118796115f9565b5b600061188885828601611707565b92505060206118998582860161173d565b9150509250929050565b6000806000606084860312156118bc576118bb6115f9565b5b60006118ca86828701611707565b93505060206118db86828701611707565b92505060406118ec8682870161173d565b9150509250925092565b6118ff81611752565b82525050565b600060208201905061191a60008301846118f6565b92915050565b600060208284031215611936576119356115f9565b5b6000611944848285016117ac565b91505092915050565b6119568161178b565b82525050565b6000602082019050611971600083018461194d565b92915050565b6000806040838503121561198e5761198d6115f9565b5b600061199c858286016117ac565b92505060206119ad85828601611707565b9150509250929050565b6119c08161171c565b82525050565b60006020820190506119db60008301846119b7565b92915050565b600080fd5b600080fd5b6000601f19601f8301169050919050565b7f4e487b7100000000000000000000000000000000000000000000000000000000600052604160045260246000fd5b611a34826119eb565b810181811067ffffffffffffffff82111715611a5357611a526119fc565b5b80604052505050565b6000611a666115ef565b9050611a728282611a2b565b919050565b600067ffffffffffffffff821115611a9257611a916119fc565b5b611a9b826119eb565b9050602081019050919050565b82818337600083830152505050565b6000611aca611ac584611a77565b611a5c565b905082815260208101848484011115611ae657611ae56119e6565b5b611af1848285611aa8565b509392505050565b600082601f830112611b0e57611b0d6119e1565b5b8135611b1e848260208601611ab7565b91505092915050565b600080600080600080600080610100898b031215611b4857611b476115f9565b5b6000611b568b828c01611707565b9850506020611b678b828c0161173d565b975050604089013567ffffffffffffffff811115611b8857611b876115fe565b5b611b948b828c01611af9565b9650506060611ba58b828c0161173d565b9550506080611bb68b828c0161173d565b94505060a0611bc78b828c01611776565b93505060c0611bd88b828c016117ac565b92505060e0611be98b828c016117ac565b9150509295985092959890939650565b600080600060608486031215611c1257611c116115f9565b5b6000611c2086828701611707565b9350506020611c318682870161173d565b925050604084013567ffffffffffffffff811115611c5257611c516115fe565b5b611c5e86828701611af9565b9150509250925092565b60008060008060808587031215611c8257611c816115f9565b5b6000611c9087828801611707565b9450506020611ca187828801611707565b9350506040611cb28782880161173d565b925050606085013567ffffffffffffffff811115611cd357611cd26115fe565b5b611cdf87828801611af9565b91505092959194509250565b600060208284031215611d0157611d006115f9565b5b6000611d0f84828501611707565b91505092915050565b600060208284031215611d2e57611d2d6115f9565b5b6000611d3c8482850161173d565b91505092915050565b600082825260208201905092915050565b7f4465726567697374657244656c65676174653a207369676e617475726520657860008201527f7069726564000000000000000000000000000000000000000000000000000000602082015250565b6000611db2602583611d45565b9150611dbd82611d56565b604082019050919050565b60006020820190508181036000830152611de181611da5565b9050919050565b611df1816116de565b82525050565b600060a082019050611e0c600083018861194d565b611e196020830187611de8565b611e2660408301866119b7565b611e3360608301856119b7565b611e4060808301846119b7565b9695505050505050565b7f4e487b7100000000000000000000000000000000000000000000000000000000600052601160045260246000fd5b6000611e848261171c565b91507fffffffffffffffffffffffffffffffffffffffffffffffffffffffffffffffff8203611eb657611eb5611e4a565b5b600182019050919050565b7f4465726567697374657244656c65676174653a20696e76616c6964206e6f6e6360008201527f6500000000000000000000000000000000000000000000000000000000000000602082015250565b6000611f1d602183611d45565b9150611f2882611ec1565b604082019050919050565b60006020820190508181036000830152611f4c81611f10565b9050919050565b7f416363657373436f6e74726f6c3a2063616e206f6e6c792072656e6f756e636560008201527f20726f6c657320666f722073656c660000000000000000000000000000000000602082015250565b6000611faf602f83611d45565b9150611fba82611f53565b604082019050919050565b60006020820190508181036000830152611fde81611fa2565b9050919050565b7f526567697374657244656c65676174653a207369676e6174757265206578706960008201527f7265640000000000000000000000000000000000000000000000000000000000602082015250565b6000612041602383611d45565b915061204c82611fe5565b604082019050919050565b6000602082019050818103600083015261207081612034565b9050919050565b600081519050919050565b60005b838110156120a0578082015181840152602081019050612085565b60008484015250505050565b60006120b782612077565b6120c18185611d45565b93506120d1818560208601612082565b6120da816119eb565b840191505092915050565b600060c0820190506120fa600083018961194d565b6121076020830188611de8565b61211460408301876119b7565b818103606083015261212681866120ac565b905061213560808301856119b7565b61214260a08301846119b7565b979650505050505050565b7f526567697374657244656c65676174653a20696e76616c6964206e6f6e636500600082015250565b6000612183601f83611d45565b915061218e8261214d565b602082019050919050565b600060208201905081810360008301526121b281612176565b9050919050565b7f526567697374657244656c65676174653a207265676973747279206261636b6660008201527f696c6c20706572696f6420686173206578706972656400000000000000000000602082015250565b6000612215603683611d45565b9150612220826121b9565b604082019050919050565b6000602082019050818103600083015261224481612208565b9050919050565b600060408201905061226060008301856119b7565b818103602083015261227281846120ac565b90509392505050565b600081905092915050565b7f1901000000000000000000000000000000000000000000000000000000000000600082015250565b60006122bc60028361227b565b91506122c782612286565b600282019050919050565b6000819050919050565b6122ed6122e88261178b565b6122d2565b82525050565b60006122fe826122af565b915061230a82856122dc565b60208201915061231a82846122dc565b6020820191508190509392505050565b600060808201905061233f600083018761194d565b61234c60208301866118f6565b612359604083018561194d565b612366606083018461194d565b95945050505050565b7f4e487b7100000000000000000000000000000000000000000000000000000000600052602160045260246000fd5b7f45434453413a20696e76616c6964207369676e61747572650000000000000000600082015250565b60006123d4601883611d45565b91506123df8261239e565b602082019050919050565b60006020820190508181036000830152612403816123c7565b9050919050565b7f45434453413a20696e76616c6964207369676e6174757265206c656e67746800600082015250565b6000612440601f83611d45565b915061244b8261240a565b602082019050919050565b6000602082019050818103600083015261246f81612433565b9050919050565b7f45434453413a20696e76616c6964207369676e6174757265202773272076616c60008201527f7565000000000000000000000000000000000000000000000000000000000000602082015250565b60006124d2602283611d45565b91506124dd82612476565b604082019050919050565b60006020820190508181036000830152612501816124c5565b9050919050565b7f416363657373436f6e74726f6c3a206163636f756e7420000000000000000000600082015250565b600061253e60178361227b565b915061254982612508565b601782019050919050565b600061255f82612077565b612569818561227b565b9350612579818560208601612082565b80840191505092915050565b7f206973206d697373696e6720726f6c6520000000000000000000000000000000600082015250565b60006125bb60118361227b565b91506125c682612585565b601182019050919050565b60006125dc82612531565b91506125e88285612554565b91506125f3826125ae565b91506125ff8284612554565b91508190509392505050565b6000602082019050818103600083015261262581846120ac565b905092915050565b600060a082019050612642600083018861194d565b61264f602083018761194d565b61265c604083018661194d565b61266960608301856119b7565b6126766080830184611de8565b9695505050505050565b600061268b8261171c565b91506126968361171c565b92508282026126a48161171c565b915082820484148315176126bb576126ba611e4a565b5b5092915050565b60006126cd8261171c565b91506126d88361171c565b92508282019050808211156126f0576126ef611e4a565b5b92915050565b7f4e487b7100000000000000000000000000000000000000000000000000000000600052603260045260246000fd5b60006127308261171c565b91506000820361274357612742611e4a565b5b600182039050919050565b7f537472696e67733a20686578206c656e67746820696e73756666696369656e74600082015250565b6000612784602083611d45565b915061278f8261274e565b602082019050919050565b600060208201905081810360008301526127b381612777565b905091905056fea26469706673582212209ddd53f96a4b34d0605305e827f7bc04b35ef8f3fb3276b3e6cb273fe25c7e3064736f6c63430008130033",
  "devdoc": {
    "events": {
      "RoleAdminChanged(bytes32,bytes32,bytes32)": {
        "details": "Emitted when `newAdminRole` is set as ``role``'s admin role, replacing `previousAdminRole` `DEFAULT_ADMIN_ROLE` is the starting admin for all roles, despite {RoleAdminChanged} not being emitted signaling this. _Available since v3.1._"
      },
      "RoleGranted(bytes32,address,address)": {
        "details": "Emitted when `account` is granted `role`. `sender` is the account that originated the contract call, an admin role bearer except when using {AccessControl-_setupRole}."
      },
      "RoleRevoked(bytes32,address,address)": {
        "details": "Emitted when `account` is revoked `role`. `sender` is the account that originated the contract call:   - if using `revokeRole`, it is the admin role bearer   - if using `renounceRole`, it is the role bearer (i.e. `account`)"
      }
    },
    "kind": "dev",
    "methods": {
      "getRoleAdmin(bytes32)": {
        "details": "Returns the admin role that controls `role`. See {grantRole} and {revokeRole}. To change a role's admin, use {_setRoleAdmin}."
      },
      "grantRole(bytes32,address)": {
        "details": "Grants `role` to `account`. If `account` had not been already granted `role`, emits a {RoleGranted} event. Requirements: - the caller must have ``role``'s admin role. May emit a {RoleGranted} event."
      },
      "hasRole(bytes32,address)": {
        "details": "Returns `true` if `account` has been granted `role`."
      },
      "renounceRole(bytes32,address)": {
        "details": "Revokes `role` from the calling account. Roles are often managed via {grantRole} and {revokeRole}: this function's purpose is to provide a mechanism for accounts to lose their privileges if they are compromised (such as when a trusted device is misplaced). If the calling account had been revoked `role`, emits a {RoleRevoked} event. Requirements: - the caller must be `account`. May emit a {RoleRevoked} event."
      },
      "revokeRole(bytes32,address)": {
        "details": "Revokes `role` from `account`. If `account` had been granted `role`, emits a {RoleRevoked} event. Requirements: - the caller must have ``role``'s admin role. May emit a {RoleRevoked} event."
      },
      "supportsInterface(bytes4)": {
        "details": "See {IERC165-supportsInterface}."
      }
    },
    "version": 1
  },
  "userdoc": {
    "kind": "user",
    "methods": {},
    "version": 1
  },
  "storageLayout": {
    "storage": [
      {
        "astId": 24,
        "contract": "contracts/DelegateRegistry.sol:DelegateRegistry",
        "label": "_roles",
        "offset": 0,
        "slot": "0",
        "type": "t_mapping(t_bytes32,t_struct(RoleData)19_storage)"
      },
      {
        "astId": 2022,
        "contract": "contracts/DelegateRegistry.sol:DelegateRegistry",
        "label": "delegates",
        "offset": 0,
        "slot": "1",
        "type": "t_mapping(t_address,t_mapping(t_address,t_mapping(t_uint256,t_uint8)))"
      },
      {
        "astId": 2026,
        "contract": "contracts/DelegateRegistry.sol:DelegateRegistry",
        "label": "nonces",
        "offset": 0,
        "slot": "2",
        "type": "t_mapping(t_address,t_uint256)"
      },
      {
        "astId": 2028,
        "contract": "contracts/DelegateRegistry.sol:DelegateRegistry",
        "label": "expiryDateForRegistryBackfill",
        "offset": 0,
        "slot": "3",
        "type": "t_uint256"
      }
    ],
    "types": {
      "t_address": {
        "encoding": "inplace",
        "label": "address",
        "numberOfBytes": "20"
      },
      "t_bool": {
        "encoding": "inplace",
        "label": "bool",
        "numberOfBytes": "1"
      },
      "t_bytes32": {
        "encoding": "inplace",
        "label": "bytes32",
        "numberOfBytes": "32"
      },
      "t_mapping(t_address,t_bool)": {
        "encoding": "mapping",
        "key": "t_address",
        "label": "mapping(address => bool)",
        "numberOfBytes": "32",
        "value": "t_bool"
      },
      "t_mapping(t_address,t_mapping(t_address,t_mapping(t_uint256,t_uint8)))": {
        "encoding": "mapping",
        "key": "t_address",
        "label": "mapping(address => mapping(address => mapping(uint256 => uint8)))",
        "numberOfBytes": "32",
        "value": "t_mapping(t_address,t_mapping(t_uint256,t_uint8))"
      },
      "t_mapping(t_address,t_mapping(t_uint256,t_uint8))": {
        "encoding": "mapping",
        "key": "t_address",
        "label": "mapping(address => mapping(uint256 => uint8))",
        "numberOfBytes": "32",
        "value": "t_mapping(t_uint256,t_uint8)"
      },
      "t_mapping(t_address,t_uint256)": {
        "encoding": "mapping",
        "key": "t_address",
        "label": "mapping(address => uint256)",
        "numberOfBytes": "32",
        "value": "t_uint256"
      },
      "t_mapping(t_bytes32,t_struct(RoleData)19_storage)": {
        "encoding": "mapping",
        "key": "t_bytes32",
        "label": "mapping(bytes32 => struct AccessControl.RoleData)",
        "numberOfBytes": "32",
        "value": "t_struct(RoleData)19_storage"
      },
      "t_mapping(t_uint256,t_uint8)": {
        "encoding": "mapping",
        "key": "t_uint256",
        "label": "mapping(uint256 => uint8)",
        "numberOfBytes": "32",
        "value": "t_uint8"
      },
      "t_struct(RoleData)19_storage": {
        "encoding": "inplace",
        "label": "struct AccessControl.RoleData",
        "members": [
          {
            "astId": 16,
            "contract": "contracts/DelegateRegistry.sol:DelegateRegistry",
            "label": "members",
            "offset": 0,
            "slot": "0",
            "type": "t_mapping(t_address,t_bool)"
          },
          {
            "astId": 18,
            "contract": "contracts/DelegateRegistry.sol:DelegateRegistry",
            "label": "adminRole",
            "offset": 0,
            "slot": "1",
            "type": "t_bytes32"
          }
        ],
        "numberOfBytes": "64"
      },
      "t_uint256": {
        "encoding": "inplace",
        "label": "uint256",
        "numberOfBytes": "32"
      },
      "t_uint8": {
        "encoding": "inplace",
        "label": "uint8",
        "numberOfBytes": "1"
      }
    }
  }
}