{
  "_format": "hh-sol-artifact-1",
  "contractName": "DelegateRegistry",
  "sourceName": "contracts/DelegateRegistry.sol",
  "abi": [
    {
      "anonymous": false,
      "inputs": [
        {
          "indexed": true,
          "internalType": "address",
          "name": "delegateAddress",
          "type": "address"
        },
        {
          "indexed": false,
          "internalType": "address",
          "name": "tokenAddress",
          "type": "address"
        },
        {
          "indexed": false,
          "internalType": "uint256",
          "name": "tokenChainId",
          "type": "uint256"
        },
        {
          "indexed": false,
          "internalType": "string",
          "name": "metadata",
          "type": "string"
        }
      ],
      "name": "DelegateAdded",
      "type": "event"
    },
    {
      "anonymous": false,
      "inputs": [
        {
          "indexed": true,
          "internalType": "address",
          "name": "delegateAddress",
          "type": "address"
        },
        {
          "indexed": false,
          "internalType": "address",
          "name": "tokenAddress",
          "type": "address"
        },
        {
          "indexed": false,
          "internalType": "uint256",
          "name": "tokenChainId",
          "type": "uint256"
        },
        {
          "indexed": false,
          "internalType": "string",
          "name": "metadata",
          "type": "string"
        }
      ],
      "name": "DelegateMetadataUpdated",
      "type": "event"
    },
    {
      "anonymous": false,
      "inputs": [
        {
          "indexed": true,
          "internalType": "address",
          "name": "delegateAddress",
          "type": "address"
        },
        {
          "indexed": false,
          "internalType": "address",
          "name": "tokenAddress",
          "type": "address"
        },
        {
          "indexed": false,
          "internalType": "uint256",
          "name": "tokenChainId",
          "type": "uint256"
        }
      ],
      "name": "DelegateRemoved",
      "type": "event"
    },
    {
      "inputs": [
        {
          "internalType": "address",
          "name": "",
          "type": "address"
        },
        {
          "internalType": "address",
          "name": "",
          "type": "address"
        },
        {
          "internalType": "uint256",
          "name": "",
          "type": "uint256"
        }
      ],
      "name": "delegates",
      "outputs": [
        {
          "internalType": "address",
          "name": "delegateAddress",
          "type": "address"
        },
        {
          "internalType": "address",
          "name": "tokenAddress",
          "type": "address"
        },
        {
          "internalType": "uint256",
          "name": "tokenChainId",
          "type": "uint256"
        }
      ],
      "stateMutability": "view",
      "type": "function"
    },
    {
      "inputs": [],
      "name": "deregisterDelegate",
      "outputs": [],
      "stateMutability": "nonpayable",
      "type": "function"
    },
    {
      "inputs": [
        {
          "internalType": "address",
          "name": "_delegateAddress",
          "type": "address"
        },
        {
          "internalType": "address",
          "name": "_tokenAddress",
          "type": "address"
        },
        {
          "internalType": "uint256",
          "name": "_tokenChainId",
          "type": "uint256"
        }
      ],
      "name": "getDelegate",
      "outputs": [
        {
          "components": [
            {
              "internalType": "address",
              "name": "delegateAddress",
              "type": "address"
            },
            {
              "internalType": "address",
              "name": "tokenAddress",
              "type": "address"
            },
            {
              "internalType": "uint256",
              "name": "tokenChainId",
              "type": "uint256"
            }
          ],
          "internalType": "struct DelegateRegistry.Delegate",
          "name": "",
          "type": "tuple"
        }
      ],
      "stateMutability": "view",
      "type": "function"
    },
    {
      "inputs": [
        {
          "internalType": "address",
          "name": "_tokenAddress",
          "type": "address"
        },
        {
          "internalType": "uint256",
          "name": "_tokenChainId",
          "type": "uint256"
        },
        {
          "internalType": "string",
          "name": "_metadata",
          "type": "string"
        }
      ],
      "name": "registerDelegate",
      "outputs": [],
      "stateMutability": "nonpayable",
      "type": "function"
    },
    {
      "inputs": [
        {
          "internalType": "address",
          "name": "_tokenAddress",
          "type": "address"
        },
        {
          "internalType": "uint256",
          "name": "_tokenChainId",
          "type": "uint256"
        },
        {
          "internalType": "string",
          "name": "_metadata",
          "type": "string"
        }
      ],
      "name": "updateDelegateMetadata",
      "outputs": [],
      "stateMutability": "nonpayable",
      "type": "function"
    }
  ],
  "bytecode": "0x608060405234801561001057600080fd5b50611041806100206000396000f3fe608060405234801561001057600080fd5b50600436106100575760003560e01c8063232a4aea1461005c578063733ed1c914610078578063867a1c3414610094578063d4537e01146100c6578063dc7c32c8146100f6575b600080fd5b61007660048036038101906100719190610c23565b610100565b005b610092600480360381019061008d9190610c23565b61027a565b005b6100ae60048036038101906100a99190610c92565b610563565b6040516100bd93929190610d03565b60405180910390f35b6100e060048036038101906100db9190610c92565b6105e7565b6040516100ed9190610d9a565b60405180910390f35b6100fe610745565b005b60008060003373ffffffffffffffffffffffffffffffffffffffff1673ffffffffffffffffffffffffffffffffffffffff16815260200190815260200160002060008573ffffffffffffffffffffffffffffffffffffffff1673ffffffffffffffffffffffffffffffffffffffff168152602001908152602001600020600084815260200190815260200160002090503373ffffffffffffffffffffffffffffffffffffffff168160000160009054906101000a900473ffffffffffffffffffffffffffffffffffffffff1673ffffffffffffffffffffffffffffffffffffffff1614610222576040517f08c379a000000000000000000000000000000000000000000000000000000000815260040161021990610e5e565b60405180910390fd5b3373ffffffffffffffffffffffffffffffffffffffff167f358bc106c14166d80ee0397053d7bcebdc78dd7635cfd7b6a566750167ae7b7785858560405161026c93929190610eec565b60405180910390a250505050565b600060405180606001604052803373ffffffffffffffffffffffffffffffffffffffff1681526020018573ffffffffffffffffffffffffffffffffffffffff168152602001848152509050600073ffffffffffffffffffffffffffffffffffffffff166000803373ffffffffffffffffffffffffffffffffffffffff1673ffffffffffffffffffffffffffffffffffffffff16815260200190815260200160002060008673ffffffffffffffffffffffffffffffffffffffff1673ffffffffffffffffffffffffffffffffffffffff168152602001908152602001600020600085815260200190815260200160002060000160009054906101000a900473ffffffffffffffffffffffffffffffffffffffff1673ffffffffffffffffffffffffffffffffffffffff16146103e3576040517f08c379a00000000000000000000000000000000000000000000000000000000081526004016103da90610fc2565b60405180910390fd5b806000803373ffffffffffffffffffffffffffffffffffffffff1673ffffffffffffffffffffffffffffffffffffffff16815260200190815260200160002060008673ffffffffffffffffffffffffffffffffffffffff1673ffffffffffffffffffffffffffffffffffffffff168152602001908152602001600020600085815260200190815260200160002060008201518160000160006101000a81548173ffffffffffffffffffffffffffffffffffffffff021916908373ffffffffffffffffffffffffffffffffffffffff16021790555060208201518160010160006101000a81548173ffffffffffffffffffffffffffffffffffffffff021916908373ffffffffffffffffffffffffffffffffffffffff160217905550604082015181600201559050503373ffffffffffffffffffffffffffffffffffffffff167ff8062ac22dc3b85838812d1c14968311ef4bda78cf9f74aba563533ad670c41785858560405161055593929190610eec565b60405180910390a250505050565b600060205282600052604060002060205281600052604060002060205280600052604060002060009250925050508060000160009054906101000a900473ffffffffffffffffffffffffffffffffffffffff16908060010160009054906101000a900473ffffffffffffffffffffffffffffffffffffffff16908060020154905083565b6105ef6109e8565b6000808573ffffffffffffffffffffffffffffffffffffffff1673ffffffffffffffffffffffffffffffffffffffff16815260200190815260200160002060008473ffffffffffffffffffffffffffffffffffffffff1673ffffffffffffffffffffffffffffffffffffffff16815260200190815260200160002060008381526020019081526020016000206040518060600160405290816000820160009054906101000a900473ffffffffffffffffffffffffffffffffffffffff1673ffffffffffffffffffffffffffffffffffffffff1673ffffffffffffffffffffffffffffffffffffffff1681526020016001820160009054906101000a900473ffffffffffffffffffffffffffffffffffffffff1673ffffffffffffffffffffffffffffffffffffffff1673ffffffffffffffffffffffffffffffffffffffff16815260200160028201548152505090509392505050565b600033905060008060008373ffffffffffffffffffffffffffffffffffffffff1673ffffffffffffffffffffffffffffffffffffffff16815260200190815260200160002060008373ffffffffffffffffffffffffffffffffffffffff1673ffffffffffffffffffffffffffffffffffffffff16815260200190815260200160002060008081526020019081526020016000206040518060600160405290816000820160009054906101000a900473ffffffffffffffffffffffffffffffffffffffff1673ffffffffffffffffffffffffffffffffffffffff1673ffffffffffffffffffffffffffffffffffffffff1681526020016001820160009054906101000a900473ffffffffffffffffffffffffffffffffffffffff1673ffffffffffffffffffffffffffffffffffffffff1673ffffffffffffffffffffffffffffffffffffffff16815260200160028201548152505090506000808373ffffffffffffffffffffffffffffffffffffffff1673ffffffffffffffffffffffffffffffffffffffff1681526020019081526020016000206000826020015173ffffffffffffffffffffffffffffffffffffffff1673ffffffffffffffffffffffffffffffffffffffff168152602001908152602001600020600082604001518152602001908152602001600020600080820160006101000a81549073ffffffffffffffffffffffffffffffffffffffff02191690556001820160006101000a81549073ffffffffffffffffffffffffffffffffffffffff021916905560028201600090555050806000015173ffffffffffffffffffffffffffffffffffffffff167fec7796ac22cd691744830d7a8a9a7d21752be77e84ebc1ee5dca0ae6e47d9da3826020015183604001516040516109dc929190610fe2565b60405180910390a25050565b6040518060600160405280600073ffffffffffffffffffffffffffffffffffffffff168152602001600073ffffffffffffffffffffffffffffffffffffffff168152602001600081525090565b6000604051905090565b600080fd5b600080fd5b600073ffffffffffffffffffffffffffffffffffffffff82169050919050565b6000610a7482610a49565b9050919050565b610a8481610a69565b8114610a8f57600080fd5b50565b600081359050610aa181610a7b565b92915050565b6000819050919050565b610aba81610aa7565b8114610ac557600080fd5b50565b600081359050610ad781610ab1565b92915050565b600080fd5b600080fd5b6000601f19601f8301169050919050565b7f4e487b7100000000000000000000000000000000000000000000000000000000600052604160045260246000fd5b610b3082610ae7565b810181811067ffffffffffffffff82111715610b4f57610b4e610af8565b5b80604052505050565b6000610b62610a35565b9050610b6e8282610b27565b919050565b600067ffffffffffffffff821115610b8e57610b8d610af8565b5b610b9782610ae7565b9050602081019050919050565b82818337600083830152505050565b6000610bc6610bc184610b73565b610b58565b905082815260208101848484011115610be257610be1610ae2565b5b610bed848285610ba4565b509392505050565b600082601f830112610c0a57610c09610add565b5b8135610c1a848260208601610bb3565b91505092915050565b600080600060608486031215610c3c57610c3b610a3f565b5b6000610c4a86828701610a92565b9350506020610c5b86828701610ac8565b925050604084013567ffffffffffffffff811115610c7c57610c7b610a44565b5b610c8886828701610bf5565b9150509250925092565b600080600060608486031215610cab57610caa610a3f565b5b6000610cb986828701610a92565b9350506020610cca86828701610a92565b9250506040610cdb86828701610ac8565b9150509250925092565b610cee81610a69565b82525050565b610cfd81610aa7565b82525050565b6000606082019050610d186000830186610ce5565b610d256020830185610ce5565b610d326040830184610cf4565b949350505050565b610d4381610a69565b82525050565b610d5281610aa7565b82525050565b606082016000820151610d6e6000850182610d3a565b506020820151610d816020850182610d3a565b506040820151610d946040850182610d49565b50505050565b6000606082019050610daf6000830184610d58565b92915050565b600082825260208201905092915050565b7f44656c656761746520646f6573206e6f7420657869737420666f72207468697360008201527f20616464726573732c20746f6b656e20616464726573732c20616e642063686160208201527f696e204944000000000000000000000000000000000000000000000000000000604082015250565b6000610e48604583610db5565b9150610e5382610dc6565b606082019050919050565b60006020820190508181036000830152610e7781610e3b565b9050919050565b600081519050919050565b60005b83811015610ea7578082015181840152602081019050610e8c565b60008484015250505050565b6000610ebe82610e7e565b610ec88185610db5565b9350610ed8818560208601610e89565b610ee181610ae7565b840191505092915050565b6000606082019050610f016000830186610ce5565b610f0e6020830185610cf4565b8181036040830152610f208184610eb3565b9050949350505050565b7f44656c656761746520616c72656164792065786973747320666f72207468697360008201527f20616464726573732c20746f6b656e20616464726573732c20616e642063686160208201527f696e204944000000000000000000000000000000000000000000000000000000604082015250565b6000610fac604583610db5565b9150610fb782610f2a565b606082019050919050565b60006020820190508181036000830152610fdb81610f9f565b9050919050565b6000604082019050610ff76000830185610ce5565b6110046020830184610cf4565b939250505056fea26469706673582212205816927134f816ce5a3b82ea526a968300dda7874f583d60fdfcc52cd00c0d8464736f6c63430008130033",
  "linkReferences": {},
  "deployedLinkReferences": {}
}